{
  "contractName": "BlackJack",
  "abi": [
    {
      "inputs": [],
      "payable": false,
      "stateMutability": "nonpayable",
      "type": "constructor"
    },
    {
      "anonymous": false,
      "inputs": [
        {
          "indexed": true,
          "internalType": "address",
          "name": "d",
          "type": "address"
        },
        {
          "indexed": false,
          "internalType": "uint256",
          "name": "sumd",
          "type": "uint256"
        },
        {
          "indexed": true,
          "internalType": "address",
          "name": "p",
          "type": "address"
        },
        {
          "indexed": false,
          "internalType": "uint256",
          "name": "sump",
          "type": "uint256"
        }
      ],
      "name": "Compare",
      "type": "event"
    },
    {
      "anonymous": false,
      "inputs": [
        {
          "indexed": true,
          "internalType": "address",
          "name": "_from",
          "type": "address"
        },
        {
          "indexed": false,
          "internalType": "uint256",
          "name": "_value",
          "type": "uint256"
        }
      ],
      "name": "Deposit",
      "type": "event"
    },
    {
      "anonymous": false,
      "inputs": [
        {
          "indexed": true,
          "internalType": "address",
          "name": "_from",
          "type": "address"
        },
        {
          "indexed": false,
          "internalType": "uint256",
          "name": "sum",
          "type": "uint256"
        }
      ],
      "name": "Get_Cards",
      "type": "event"
    },
    {
      "constant": true,
      "inputs": [
        {
          "internalType": "uint256",
          "name": "",
          "type": "uint256"
        }
      ],
      "name": "deck",
      "outputs": [
        {
          "internalType": "string",
          "name": "name",
          "type": "string"
        },
        {
          "internalType": "uint8",
          "name": "rate",
          "type": "uint8"
        }
      ],
      "payable": false,
      "stateMutability": "view",
      "type": "function"
    },
    {
      "constant": true,
      "inputs": [],
      "name": "lastValue",
      "outputs": [
        {
          "internalType": "uint32",
          "name": "",
          "type": "uint32"
        }
      ],
      "payable": false,
      "stateMutability": "view",
      "type": "function"
    },
    {
      "constant": true,
      "inputs": [],
      "name": "standD",
      "outputs": [
        {
          "internalType": "bool",
          "name": "",
          "type": "bool"
        }
      ],
      "payable": false,
      "stateMutability": "view",
      "type": "function"
    },
    {
      "constant": true,
      "inputs": [],
      "name": "standP",
      "outputs": [
        {
          "internalType": "bool",
          "name": "",
          "type": "bool"
        }
      ],
      "payable": false,
      "stateMutability": "view",
      "type": "function"
    },
    {
      "constant": true,
      "inputs": [],
      "name": "value",
      "outputs": [
        {
          "internalType": "uint256",
          "name": "",
          "type": "uint256"
        }
      ],
      "payable": false,
      "stateMutability": "view",
      "type": "function"
    },
    {
      "constant": false,
      "inputs": [],
      "name": "choose_dealer",
      "outputs": [],
      "payable": true,
      "stateMutability": "payable",
      "type": "function"
    },
    {
      "constant": false,
      "inputs": [],
      "name": "choose_player",
      "outputs": [],
      "payable": true,
      "stateMutability": "payable",
      "type": "function"
    },
    {
      "constant": false,
      "inputs": [],
      "name": "add_money_player",
      "outputs": [],
      "payable": true,
      "stateMutability": "payable",
      "type": "function"
    },
    {
      "constant": false,
      "inputs": [],
      "name": "add_money_dealer",
      "outputs": [],
      "payable": true,
      "stateMutability": "payable",
      "type": "function"
    },
    {
      "constant": false,
      "inputs": [],
      "name": "giveCards",
      "outputs": [],
      "payable": false,
      "stateMutability": "nonpayable",
      "type": "function"
    },
    {
      "constant": false,
      "inputs": [],
      "name": "hit_dealer",
      "outputs": [],
      "payable": false,
      "stateMutability": "nonpayable",
      "type": "function"
    },
    {
      "constant": false,
      "inputs": [],
      "name": "hit_player",
      "outputs": [],
      "payable": false,
      "stateMutability": "nonpayable",
      "type": "function"
    },
    {
      "constant": false,
      "inputs": [],
      "name": "stand",
      "outputs": [],
      "payable": false,
      "stateMutability": "nonpayable",
      "type": "function"
    },
    {
      "constant": false,
      "inputs": [],
      "name": "check_cards",
      "outputs": [],
      "payable": false,
      "stateMutability": "nonpayable",
      "type": "function"
    },
    {
      "constant": false,
      "inputs": [],
      "name": "checkWinner",
      "outputs": [],
      "payable": false,
      "stateMutability": "nonpayable",
      "type": "function"
    },
    {
      "constant": true,
      "inputs": [],
      "name": "check",
      "outputs": [
        {
          "internalType": "address",
          "name": "",
          "type": "address"
        }
      ],
      "payable": false,
      "stateMutability": "view",
      "type": "function"
    }
  ],
  "bytecode": "0x60806040526000600d553480156200001657600080fd5b50620000276200002d60201b60201c565b62000627565b6034600c60006101000a81548163ffffffff021916908363ffffffff16021790555060008090505b60048160ff16101562000422576000600290505b600a8160ff16116200011b576009604051806040016040528062000093846200042560201b60201c565b81526020018360ff16815250908060018154018082558091505090600182039060005260206000209060020201600090919290919091506000820151816000019080519060200190620000e892919062000578565b5060208201518160010160006101000a81548160ff021916908360ff160217905550505050808060010191505062000069565b50600960405180604001604052806040518060400160405280600481526020017f4a61636b000000000000000000000000000000000000000000000000000000008152508152602001600a60ff16815250908060018154018082558091505090600182039060005260206000209060020201600090919290919091506000820151816000019080519060200190620001b592919062000578565b5060208201518160010160006101000a81548160ff021916908360ff160217905550505050600960405180604001604052806040518060400160405280600481526020017f4c616479000000000000000000000000000000000000000000000000000000008152508152602001600a60ff168152509080600181540180825580915050906001820390600052602060002090600202016000909192909190915060008201518160000190805190602001906200027392919062000578565b5060208201518160010160006101000a81548160ff021916908360ff160217905550505050600960405180604001604052806040518060400160405280600481526020017f4b696e67000000000000000000000000000000000000000000000000000000008152508152602001600a60ff168152509080600181540180825580915050906001820390600052602060002090600202016000909192909190915060008201518160000190805190602001906200033192919062000578565b5060208201518160010160006101000a81548160ff021916908360ff160217905550505050600960405180604001604052806040518060400160405280600381526020017f41636500000000000000000000000000000000000000000000000000000000008152508152602001600b60ff16815250908060018154018082558091505090600182039060005260206000209060020201600090919290919091506000820151816000019080519060200190620003ef92919062000578565b5060208201518160010160006101000a81548160ff021916908360ff160217905550505050808060010191505062000055565b50565b606060008260ff16141562000472576040518060400160405280600181526020017f3000000000000000000000000000000000000000000000000000000000000000815250905062000573565b60008260ff16905060005b60008214620004a2578080600101915050600a82816200049957fe5b0491506200047d565b6060816040519080825280601f01601f191660200182016040528015620004d85781602001600182028038833980820191505090505b50905060008290505b60008660ff16146200056b576001810390506000600a808860ff16816200050457fe5b04028703603001905060008160f81b9050808484815181106200052357fe5b60200101907effffffffffffffffffffffffffffffffffffffffffffffffffffffffffffff1916908160001a905350600a8860ff16816200056057fe5b0497505050620004e1565b819450505050505b919050565b828054600181600116156101000203166002900490600052602060002090601f016020900481019282601f10620005bb57805160ff1916838001178555620005ec565b82800160010185558215620005ec579182015b82811115620005eb578251825591602001919060010190620005ce565b5b509050620005fb9190620005ff565b5090565b6200062491905b808211156200062057600081600090555060010162000606565b5090565b90565b61252980620006376000396000f3fe6080604052600436106100f35760003560e01c8063ab7382131161008a578063d0fc60bd11610059578063d0fc60bd14610333578063e3107de91461034a578063f192482014610361578063f8ba0c6814610378576100f3565b8063ab738213146102f1578063ad38867e146102fb578063b3f0482514610312578063c2897b101461031c576100f3565b806365c5d425116100c657806365c5d4251461024a5780637310c2ef146102615780638f801d8614610290578063919840ad1461029a576100f3565b80633f7063a2146100f85780633fa4f24514610127578063431838341461015257806365b1dafa14610189575b600080fd5b34801561010457600080fd5b5061010d610382565b604051808215151515815260200191505060405180910390f35b34801561013357600080fd5b5061013c610395565b6040518082815260200191505060405180910390f35b34801561015e57600080fd5b5061016761039b565b604051808263ffffffff1663ffffffff16815260200191505060405180910390f35b34801561019557600080fd5b506101c2600480360360208110156101ac57600080fd5b81019080803590602001909291905050506103b1565b60405180806020018360ff1660ff168152602001828103825284818151815260200191508051906020019080838360005b8381101561020e5780820151818401526020810190506101f3565b50505050905090810190601f16801561023b5780820380516001836020036101000a031916815260200191505b50935050505060405180910390f35b34801561025657600080fd5b5061025f610487565b005b34801561026d57600080fd5b5061027661068b565b604051808215151515815260200191505060405180910390f35b61029861069e565b005b3480156102a657600080fd5b506102af6107c6565b604051808273ffffffffffffffffffffffffffffffffffffffff1673ffffffffffffffffffffffffffffffffffffffff16815260200191505060405180910390f35b6102f96107f0565b005b34801561030757600080fd5b50610310610998565b005b61031a610ef8565b005b34801561032857600080fd5b50610331610f95565b005b34801561033f57600080fd5b5061034861102c565b005b34801561035657600080fd5b5061035f611477565b005b34801561036d57600080fd5b5061037661167b565b005b610380611bce565b005b600a60159054906101000a900460ff1681565b600b5481565b600860009054906101000a900463ffffffff1681565b600981815481106103be57fe5b9060005260206000209060020201600091509050806000018054600181600116156101000203166002900480601f01602080910402602001604051908101604052809291908181526020018280546001816001161561010002031660029004801561046a5780601f1061043f5761010080835404028352916020019161046a565b820191906000526020600020905b81548152906001019060200180831161044d57829003601f168201915b5050505050908060010160009054906101000a900460ff16905082565b600060020160009054906101000a900460ff1661050c576040517f08c379a00000000000000000000000000000000000000000000000000000000081526004018080602001828103825260198152602001807f506c6179657220646f65736e277420686176652063617264730000000000000081525060200191505060405180910390fd5b60008060020160026101000a81548163ffffffff021916908363ffffffff1602179055506000600460020160006101000a81548163ffffffff021916908363ffffffff16021790555060008090505b6000600301805490508163ffffffff1610156105ee5760006003018163ffffffff168154811061058757fe5b906000526020600020906002020160010160009054906101000a900460ff1660ff16600060020160028282829054906101000a900463ffffffff160192506101000a81548163ffffffff021916908363ffffffff160217905550808060010191505061055b565b5060008090505b6004600301805490508163ffffffff1610156106885760046003018163ffffffff168154811061062157fe5b906000526020600020906002020160010160009054906101000a900460ff1660ff16600460020160008282829054906101000a900463ffffffff160192506101000a81548163ffffffff021916908363ffffffff16021790555080806001019150506105f5565b50565b600a60149054906101000a900460ff1681565b6000800160009054906101000a900473ffffffffffffffffffffffffffffffffffffffff1673ffffffffffffffffffffffffffffffffffffffff163373ffffffffffffffffffffffffffffffffffffffff1614610763576040517f08c379a000000000000000000000000000000000000000000000000000000000815260040180806020018281038252601a8152602001807f4f6e6c7920706c617965722063616e2063616c6c20746869732e00000000000081525060200191505060405180910390fd5b346000600101600082825401925050819055503373ffffffffffffffffffffffffffffffffffffffff167fe1fffcc4923d04b559f4d29a8bfc6cda04eb5b0d3c460751c2402c5c5cc9109c346040518082815260200191505060405180910390a2565b6000600a60009054906101000a900473ffffffffffffffffffffffffffffffffffffffff16905090565b600460000160009054906101000a900473ffffffffffffffffffffffffffffffffffffffff1673ffffffffffffffffffffffffffffffffffffffff163373ffffffffffffffffffffffffffffffffffffffff16146108b6576040517f08c379a000000000000000000000000000000000000000000000000000000000815260040180806020018281038252601a8152602001807f4f6e6c79206465616c65722063616e2063616c6c20746869732e00000000000081525060200191505060405180910390fd5b346004600101600082825401925050819055503373ffffffffffffffffffffffffffffffffffffffff167fe1fffcc4923d04b559f4d29a8bfc6cda04eb5b0d3c460751c2402c5c5cc9109c346040518082815260200191505060405180910390a260046001015460006001015414610996576040517f08c379a00000000000000000000000000000000000000000000000000000000081526004018080602001828103825260178152602001807f5261746573206d757374206265207468652073616d652e00000000000000000081525060200191505060405180910390fd5b565b60046001015460006001015414610a17576040517f08c379a00000000000000000000000000000000000000000000000000000000081526004018080602001828103825260178152602001807f5261746573206d757374206265207468652073616d652e00000000000000000081525060200191505060405180910390fd5b60011515600a60149054906101000a900460ff161515148015610a4d575060011515600a60159054906101000a900460ff161515145b610abf576040517f08c379a00000000000000000000000000000000000000000000000000000000081526004018080602001828103825260138152602001807f4e6f7420616c6c206d61646520277374616e640000000000000000000000000081525060200191505060405180910390fd5b600460020160009054906101000a900463ffffffff1663ffffffff16600060020160029054906101000a900463ffffffff1663ffffffff16118015610b2057506015600060020160029054906101000a900463ffffffff1663ffffffff1611155b15610c06576000800160009054906101000a900473ffffffffffffffffffffffffffffffffffffffff1673ffffffffffffffffffffffffffffffffffffffff166108fc600060010154600460010154019081150290604051600060405180830381858888f19350505050158015610b9b573d6000803e3d6000fd5b506000800160009054906101000a900473ffffffffffffffffffffffffffffffffffffffff16600a60006101000a81548173ffffffffffffffffffffffffffffffffffffffff021916908373ffffffffffffffffffffffffffffffffffffffff160217905550610e0a565b600460020160009054906101000a900463ffffffff1663ffffffff16600060020160029054906101000a900463ffffffff1663ffffffff161415610d2a57600460000160009054906101000a900473ffffffffffffffffffffffffffffffffffffffff1673ffffffffffffffffffffffffffffffffffffffff166108fc6004600101549081150290604051600060405180830381858888f19350505050158015610cb4573d6000803e3d6000fd5b506000800160009054906101000a900473ffffffffffffffffffffffffffffffffffffffff1673ffffffffffffffffffffffffffffffffffffffff166108fc6000600101549081150290604051600060405180830381858888f19350505050158015610d24573d6000803e3d6000fd5b50610e09565b600460000160009054906101000a900473ffffffffffffffffffffffffffffffffffffffff1673ffffffffffffffffffffffffffffffffffffffff166108fc600060010154600460010154019081150290604051600060405180830381858888f19350505050158015610da1573d6000803e3d6000fd5b50600460000160009054906101000a900473ffffffffffffffffffffffffffffffffffffffff16600a60006101000a81548173ffffffffffffffffffffffffffffffffffffffff021916908373ffffffffffffffffffffffffffffffffffffffff1602179055505b5b6000800160009054906101000a900473ffffffffffffffffffffffffffffffffffffffff1673ffffffffffffffffffffffffffffffffffffffff16600460000160009054906101000a900473ffffffffffffffffffffffffffffffffffffffff1673ffffffffffffffffffffffffffffffffffffffff167f801142d4815df6228c2504370343b430ea366897420d133fe209e047747106ba600460020160009054906101000a900463ffffffff16600060020160029054906101000a900463ffffffff16604051808363ffffffff1681526020018263ffffffff1681526020019250505060405180910390a3565b34600060010181905550336000800160006101000a81548173ffffffffffffffffffffffffffffffffffffffff021916908373ffffffffffffffffffffffffffffffffffffffff1602179055503373ffffffffffffffffffffffffffffffffffffffff167fe1fffcc4923d04b559f4d29a8bfc6cda04eb5b0d3c460751c2402c5c5cc9109c346040518082815260200191505060405180910390a2565b600460000160009054906101000a900473ffffffffffffffffffffffffffffffffffffffff1673ffffffffffffffffffffffffffffffffffffffff163373ffffffffffffffffffffffffffffffffffffffff16141561100e576001600a60156101000a81548160ff02191690831515021790555061102a565b6001600a60146101000a81548160ff0219169083151502179055505b565b600460000160009054906101000a900473ffffffffffffffffffffffffffffffffffffffff1673ffffffffffffffffffffffffffffffffffffffff163373ffffffffffffffffffffffffffffffffffffffff16146110f2576040517f08c379a000000000000000000000000000000000000000000000000000000000815260040180806020018281038252601a8152602001807f4f6e6c79206465616c65722063616e2063616c6c20746869732e00000000000081525060200191505060405180910390fd5b6110fa610487565b6011600460020160009054906101000a900463ffffffff1663ffffffff16111561118c576040517f08c379a00000000000000000000000000000000000000000000000000000000081526004018080602001828103825260148152602001807f546f74616c20706f696e7473206f76657220313700000000000000000000000081525060200191505060405180910390fd5b6000611196611c6c565b90506004600301600982815481106111aa57fe5b9060005260206000209060020201908060018154018082558091505090600182039060005260206000209060020201600090919290919091506000820181600001908054600181600116156101000203166002900461120a929190612400565b506001820160009054906101000a900460ff168160010160006101000a81548160ff021916908360ff1602179055505050506009818154811061124957fe5b906000526020600020906002020160010160009054906101000a900460ff1660ff16600460020160008282829054906101000a900463ffffffff160192506101000a81548163ffffffff021916908363ffffffff16021790555060096001600c60009054906101000a900463ffffffff160363ffffffff16815481106112cb57fe5b9060005260206000209060020201600982815481106112e657fe5b90600052602060002090600202016000820181600001908054600181600116156101000203166002900461131b929190612400565b506001820160009054906101000a900460ff168160010160006101000a81548160ff021916908360ff16021790555090505060096001600c60009054906101000a900463ffffffff160363ffffffff168154811061137557fe5b9060005260206000209060020201600080820160006113949190612487565b6001820160006101000a81549060ff02191690555050600c600081819054906101000a900463ffffffff16809291906001900391906101000a81548163ffffffff021916908363ffffffff16021790555050600460000160009054906101000a900473ffffffffffffffffffffffffffffffffffffffff1673ffffffffffffffffffffffffffffffffffffffff167fb79970cf7e85476cae318f2f10e3b68525cf8e5b3a153f12a89ecb2f2edf9a01600460020160009054906101000a900463ffffffff16604051808263ffffffff16815260200191505060405180910390a250565b6000800160009054906101000a900473ffffffffffffffffffffffffffffffffffffffff1673ffffffffffffffffffffffffffffffffffffffff163373ffffffffffffffffffffffffffffffffffffffff161461153c576040517f08c379a000000000000000000000000000000000000000000000000000000000815260040180806020018281038252601a8152602001807f4f6e6c7920706c617965722063616e2063616c6c20746869732e00000000000081525060200191505060405180910390fd5b611544610487565b6015600060020160029054906101000a900463ffffffff1663ffffffff1611156115d6576040517f08c379a00000000000000000000000000000000000000000000000000000000081526004018080602001828103825260208152602001807f596f75277665206c6f73742e546f74616c20706f696e7473206f76657220323181525060200191505060405180910390fd5b60006115e0611c6c565b90506115eb81611d09565b6000800160009054906101000a900473ffffffffffffffffffffffffffffffffffffffff1673ffffffffffffffffffffffffffffffffffffffff167fb79970cf7e85476cae318f2f10e3b68525cf8e5b3a153f12a89ecb2f2edf9a01600060020160029054906101000a900463ffffffff16604051808263ffffffff16815260200191505060405180910390a250565b600460000160009054906101000a900473ffffffffffffffffffffffffffffffffffffffff1673ffffffffffffffffffffffffffffffffffffffff163373ffffffffffffffffffffffffffffffffffffffff1614611741576040517f08c379a000000000000000000000000000000000000000000000000000000000815260040180806020018281038252601a8152602001807f4f6e6c79206465616c65722063616e2063616c6c20746869732e00000000000081525060200191505060405180910390fd5b600060020160009054906101000a900460ff16156117c7576040517f08c379a000000000000000000000000000000000000000000000000000000000815260040180806020018281038252601d8152602001807f54686520706c6179657220616c7265616479206861732063617264732e00000081525060200191505060405180910390fd5b60006009805490501415611843576040517f08c379a000000000000000000000000000000000000000000000000000000000815260040180806020018281038252601a8152602001807f4e6f206d6f726520636172647320696e20746865206465636b2100000000000081525060200191505060405180910390fd5b600061184d611c6c565b905060046003016009828154811061186157fe5b906000526020600020906002020190806001815401808255809150509060018203906000526020600020906002020160009091929091909150600082018160000190805460018160011615610100020316600290046118c1929190612400565b506001820160009054906101000a900460ff168160010160006101000a81548160ff021916908360ff1602179055505050506009818154811061190057fe5b906000526020600020906002020160010160009054906101000a900460ff1660ff16600460020160008282829054906101000a900463ffffffff160192506101000a81548163ffffffff021916908363ffffffff16021790555060096001600c60009054906101000a900463ffffffff160363ffffffff168154811061198257fe5b90600052602060002090600202016009828154811061199d57fe5b9060005260206000209060020201600082018160000190805460018160011615610100020316600290046119d2929190612400565b506001820160009054906101000a900460ff168160010160006101000a81548160ff021916908360ff16021790555090505060096001600c60009054906101000a900463ffffffff160363ffffffff1681548110611a2c57fe5b906000526020600020906002020160008082016000611a4b9190612487565b6001820160006101000a81549060ff02191690555050600c600081819054906101000a900463ffffffff16809291906001900391906101000a81548163ffffffff021916908363ffffffff160217905550506000611aa7611c6c565b90506000611ab3611c6c565b9050611abf8282611f60565b6001600060020160006101000a81548160ff0219169083151502179055506000800160009054906101000a900473ffffffffffffffffffffffffffffffffffffffff1673ffffffffffffffffffffffffffffffffffffffff16600460000160009054906101000a900473ffffffffffffffffffffffffffffffffffffffff1673ffffffffffffffffffffffffffffffffffffffff167f801142d4815df6228c2504370343b430ea366897420d133fe209e047747106ba600460020160009054906101000a900463ffffffff16600060020160029054906101000a900463ffffffff16604051808363ffffffff1681526020018263ffffffff1681526020019250505060405180910390a3505050565b33600460000160006101000a81548173ffffffffffffffffffffffffffffffffffffffff021916908373ffffffffffffffffffffffffffffffffffffffff160217905550346004600101819055503373ffffffffffffffffffffffffffffffffffffffff167fe1fffcc4923d04b559f4d29a8bfc6cda04eb5b0d3c460751c2402c5c5cc9109c346040518082815260200191505060405180910390a2565b6000600d60008154809291906001019190505550600c60009054906101000a900463ffffffff1663ffffffff1633600d54604051602001808373ffffffffffffffffffffffffffffffffffffffff1673ffffffffffffffffffffffffffffffffffffffff1660601b8152601401828152602001925050506040516020818303038152906040528051906020012060001c81611d0357fe5b06905090565b6000600990506000600301818381548110611d2057fe5b90600052602060002090600202019080600181540180825580915050906001820390600052602060002090600202016000909192909190915060008201816000019080546001816001161561010002031660029004611d80929190612400565b506001820160009054906101000a900460ff168160010160006101000a81548160ff021916908360ff16021790555050505060098281548110611dbf57fe5b906000526020600020906002020160010160009054906101000a900460ff1660ff16600060020160028282829054906101000a900463ffffffff160192506101000a81548163ffffffff021916908363ffffffff16021790555060096001600c60009054906101000a900463ffffffff160363ffffffff1681548110611e4157fe5b906000526020600020906002020160098381548110611e5c57fe5b906000526020600020906002020160008201816000019080546001816001161561010002031660029004611e91929190612400565b506001820160009054906101000a900460ff168160010160006101000a81548160ff021916908360ff16021790555090505060096001600c60009054906101000a900463ffffffff160363ffffffff1681548110611eeb57fe5b906000526020600020906002020160008082016000611f0a9190612487565b6001820160006101000a81549060ff02191690555050600c600081819054906101000a900463ffffffff16809291906001900391906101000a81548163ffffffff021916908363ffffffff160217905550505050565b600060030160098381548110611f7257fe5b90600052602060002090600202019080600181540180825580915050906001820390600052602060002090600202016000909192909190915060008201816000019080546001816001161561010002031660029004611fd2929190612400565b506001820160009054906101000a900460ff168160010160006101000a81548160ff021916908360ff1602179055505050506009828154811061201157fe5b906000526020600020906002020160010160009054906101000a900460ff1660ff16600060020160028282829054906101000a900463ffffffff160192506101000a81548163ffffffff021916908363ffffffff16021790555060096001600c60009054906101000a900463ffffffff160363ffffffff168154811061209357fe5b9060005260206000209060020201600983815481106120ae57fe5b9060005260206000209060020201600082018160000190805460018160011615610100020316600290046120e3929190612400565b506001820160009054906101000a900460ff168160010160006101000a81548160ff021916908360ff16021790555090505060096001600c60009054906101000a900463ffffffff160363ffffffff168154811061213d57fe5b90600052602060002090600202016000808201600061215c9190612487565b6001820160006101000a81549060ff02191690555050600c600081819054906101000a900463ffffffff16809291906001900391906101000a81548163ffffffff021916908363ffffffff160217905550506000600301600982815481106121c057fe5b90600052602060002090600202019080600181540180825580915050906001820390600052602060002090600202016000909192909190915060008201816000019080546001816001161561010002031660029004612220929190612400565b506001820160009054906101000a900460ff168160010160006101000a81548160ff021916908360ff1602179055505050506009818154811061225f57fe5b906000526020600020906002020160010160009054906101000a900460ff1660ff16600060020160028282829054906101000a900463ffffffff160192506101000a81548163ffffffff021916908363ffffffff16021790555060096001600c60009054906101000a900463ffffffff160363ffffffff16815481106122e157fe5b9060005260206000209060020201600982815481106122fc57fe5b906000526020600020906002020160008201816000019080546001816001161561010002031660029004612331929190612400565b506001820160009054906101000a900460ff168160010160006101000a81548160ff021916908360ff16021790555090505060096001600c60009054906101000a900463ffffffff160363ffffffff168154811061238b57fe5b9060005260206000209060020201600080820160006123aa9190612487565b6001820160006101000a81549060ff02191690555050600c600081819054906101000a900463ffffffff16809291906001900391906101000a81548163ffffffff021916908363ffffffff160217905550505050565b828054600181600116156101000203166002900490600052602060002090601f016020900481019282601f106124395780548555612476565b8280016001018555821561247657600052602060002091601f016020900482015b8281111561247557825482559160010191906001019061245a565b5b50905061248391906124cf565b5090565b50805460018160011615610100020316600290046000825580601f106124ad57506124cc565b601f0160209004906000526020600020908101906124cb91906124cf565b5b50565b6124f191905b808211156124ed5760008160009055506001016124d5565b5090565b9056fea265627a7a72315820b545d2dce5c86dfdafd6cfa434b437f2e855ac81954642f9c1fe41b7e8feae2e64736f6c63430005100032",
  "source": "// SPDX-License-Identifier: MIT\npragma solidity >=0.4.22 <0.7.0;\n\ncontract BlackJack {\n    struct Player {\n        address payable name; // \n        uint256 cashAmmount; // \n        bool hasCards;\n        bool authorized;\n        uint32 sumPlayer;\n        Card[] cards;\n    }\n    struct Card {\n        string name; // \n        uint8 rate; //  \n    }\n\n    struct Dealer {\n        address payable name; // \n        uint256 cashAmmount; // \n        uint32 sumDealer; //  \n        Card[] cards;\n    }\n\n    Player player;\n    Dealer dealer;\n    uint32 public lastValue;\n    Card[] public deck; // \n\n    address  winner;\n    bool public standP; //    \n    bool public standD; //    \n    uint256 public value;\n\n    uint32  ammountOfCards;\n\n    event Deposit(address indexed _from, uint256 _value);\n    event Get_Cards(address indexed _from,  uint256 sum);\n    event Compare(\n        address indexed d,\n        uint256 sumd,\n        address indexed p,\n        uint256 sump\n    );\n    modifier points_player() {\n        check_cards();\n        require(player.sumPlayer <= 21, \"You've lost.Total points over 21\");\n        _;\n    } //    \n\n    modifier points_dealer() {\n        check_cards();\n        require(dealer.sumDealer <= 17, \"Total points over 17\");\n        _;\n    } //?    \n    modifier only_dealer() {\n        require(msg.sender == dealer.name, \"Only dealer can call this.\");\n        _;\n    }\n\n    modifier only_player() {\n        require(msg.sender == player.name, \"Only player can call this.\");\n        _;\n    }\n\n    function choose_dealer() public payable {\n        dealer.name = msg.sender;\n        dealer.cashAmmount = msg.value;\n        emit Deposit(msg.sender, msg.value);\n    } //   \n\n    function choose_player() public payable \n    {\n        player.cashAmmount = msg.value;\n        player.name = msg.sender;\n        emit Deposit(msg.sender, msg.value);\n    } //   \n\n    function add_money_player()\n        public\n        payable\n        only_player\n    {\n        player.cashAmmount += msg.value;\n        emit Deposit(msg.sender, msg.value);\n    } //  \n\n    function add_money_dealer()\n        public\n        payable\n        only_dealer\n    {\n        dealer.cashAmmount += msg.value;\n        emit Deposit(msg.sender, msg.value);\n        require(\n            (player.cashAmmount) == dealer.cashAmmount,\n            \"Rates must be the same.\"\n        );\n    } //  \n \n     function giveToPlayer(uint256 card1,uint256 card2)private{\n        player.cards.push(deck[card1]);\n        player.sumPlayer += deck[card1].rate;\n        deck[card1] = deck[ammountOfCards - 1];\n        delete deck[ammountOfCards - 1];\n        ammountOfCards--;\n\n        player.cards.push(deck[card2]);\n        player.sumPlayer += deck[card2].rate;\n        deck[card2] = deck[ammountOfCards - 1];\n        delete deck[ammountOfCards - 1];\n        ammountOfCards--;\n    } \n      function giveToPlayer(uint256  card) private {\n        Card [] storage  card1=deck;\n        player.cards.push(card1[card]);\n        player.sumPlayer += deck[card].rate;\n        deck[card] = deck[ammountOfCards - 1];\n        delete deck[ammountOfCards - 1];\n        ammountOfCards--;\n    }\n\n    function giveCards() public only_dealer {\n        // \n        require(!player.hasCards, \"The player already has cards.\");\n        require(deck.length != 0, \"No more cards in the deck!\");\n\n\n        //     \n        uint256 card = rand();\n        dealer.cards.push(deck[card]);\n        dealer.sumDealer += deck[card].rate;\n        deck[card] = deck[ammountOfCards - 1];\n        delete deck[ammountOfCards - 1];\n        ammountOfCards--;\n\n        //     \n        uint256 card1 = rand();\n        uint256 card2 = rand();\n        \n        giveToPlayer(card1,card2);\n\n        player.hasCards = true;\n        emit Compare(dealer.name,dealer.sumDealer, player.name, player.sumPlayer);\n    }\n\n    function hit_dealer() \n    public\n    only_dealer\n    points_dealer\n     {\n        //   \n            uint256 cardDealer = rand();\n            dealer.cards.push(deck[cardDealer]);\n            dealer.sumDealer += deck[cardDealer].rate;\n            deck[cardDealer] = deck[ammountOfCards - 1];\n            delete deck[ammountOfCards - 1];\n            ammountOfCards--;\n            emit Get_Cards(dealer.name,  dealer.sumDealer);\n    }\n    function hit_player() \n        public\n        only_player\n        points_player\n        {\n            uint256 cardPlayer = rand();\n            giveToPlayer(cardPlayer);\n            emit Get_Cards(player.name,  player.sumPlayer );\n        }\n    \n\n    function stand() public {\n        //   \n\n        if (msg.sender == dealer.name) {\n            standD = true;\n        } else {\n            standP = true;\n        }\n    }\n\n    function check_cards() public {\n        require(\n            player.hasCards,\n            \"Player doesn't have cards\" //    \n        );\n        player.sumPlayer = 0;\n        dealer.sumDealer = 0;\n        for (uint32 i = 0; i < player.cards.length; i++) {\n            player.sumPlayer += player.cards[i].rate;\n        }\n        for (uint32 i = 0; i < dealer.cards.length; i++) {\n            dealer.sumDealer += dealer.cards[i].rate;\n        }\n    } //   \n\n    function checkWinner()  public {\n        require(\n            (player.cashAmmount) == dealer.cashAmmount,\n            \"Rates must be the same.\"\n        );\n        require(standP == true && standD == true, \"Not all made 'stand\");\n        if ((player.sumPlayer > dealer.sumDealer) && (player.sumPlayer <= 21)) {\n        player.name.transfer(dealer.cashAmmount + player.cashAmmount);\n        winner = player.name;\n        }else if (player.sumPlayer == dealer.sumDealer) {\n        dealer.name.transfer(dealer.cashAmmount);\n        player.name.transfer(player.cashAmmount);\n        } else {\n        dealer.name.transfer(dealer.cashAmmount + player.cashAmmount);\n        winner = dealer.name;\n        }\n        emit Compare(dealer.name, dealer.sumDealer,player.name, player.sumPlayer);\n    }\n\n    function check()public view returns(address){\n        return winner;\n    }\n    function fillDeck() private {\n        ammountOfCards = 52;\n        //  52 ,  \n        for (uint8 i = 0; i < 4; i++) {\n            //   2  10\n            for (uint8 j = 2; j <= 10; j++) {\n                deck.push(Card({name: uint2str(j), rate: j}));\n            }\n            deck.push(\n                Card({\n                    name: \"Jack\", //\n                    rate: 10\n                })\n            );\n            deck.push(\n                Card({\n                    name: \"Lady\", //\n                    rate: 10\n                })\n            );\n            deck.push(\n                Card({\n                    name: \"King\", //\n                    rate: 10\n                })\n            );\n            deck.push(\n                Card({\n                    name: \"Ace\", //\n                    rate: 11\n                })\n            );\n        }\n    }\n\n    constructor() public {\n        fillDeck();\n    }\n\n    // \n\n\n    // Intializing the state variable\n    uint256 randNonce = 0;\n\n    // Defining a function to generate\n    // a random number\n    function rand() internal  returns (uint256) {\n        // increase nonce\n        randNonce++;\n        return\n            uint256(keccak256(abi.encodePacked(msg.sender, randNonce))) %\n            ammountOfCards;\n    }\n\n    function uint2str(uint8 _i)\n        internal\n        pure\n        returns (string memory _uintAsString)\n    {\n        if (_i == 0) {\n            return \"0\";\n        }\n        uint256 j = _i;\n        uint256 len;\n        while (j != 0) {\n            len++;\n            j /= 10;\n        }\n        bytes memory bstr = new bytes(len);\n        uint256 k = len;\n        while (_i != 0) {\n            k = k - 1;\n            uint8 temp = (48 + uint8(_i - (_i / 10) * 10));\n            bytes1 b1 = bytes1(temp);\n            bstr[k] = b1;\n            _i /= 10;\n        }\n        return string(bstr);\n    }\n}",
  "sourcePath": "/Users/mikhail/Documents/BlackJackEth/contracts/BlackJack.sol",
  "compiler": {
    "name": "solc",
    "version": "0.5.16+commit.9c3226ce.Emscripten.clang"
  },
  "schemaVersion": "3.3.4",
  "updatedAt": "2021-04-01T16:19:55.104Z",
  "devdoc": {
    "methods": {}
  },
  "userdoc": {
    "methods": {}
  }
}