{
  "contractName": "BlackJack",
  "abi": [
    {
      "inputs": [],
      "payable": false,
      "stateMutability": "nonpayable",
      "type": "constructor"
    },
    {
      "constant": true,
      "inputs": [],
      "name": "dealer",
      "outputs": [
        {
          "internalType": "address",
          "name": "",
          "type": "address"
        }
      ],
      "payable": false,
      "stateMutability": "view",
      "type": "function"
    },
    {
      "constant": true,
      "inputs": [
        {
          "internalType": "uint256",
          "name": "",
          "type": "uint256"
        }
      ],
      "name": "dealerCards",
      "outputs": [
        {
          "internalType": "string",
          "name": "name",
          "type": "string"
        },
        {
          "internalType": "uint8",
          "name": "rate",
          "type": "uint8"
        }
      ],
      "payable": false,
      "stateMutability": "view",
      "type": "function"
    },
    {
      "constant": true,
      "inputs": [
        {
          "internalType": "uint256",
          "name": "",
          "type": "uint256"
        }
      ],
      "name": "deck",
      "outputs": [
        {
          "internalType": "string",
          "name": "name",
          "type": "string"
        },
        {
          "internalType": "uint8",
          "name": "rate",
          "type": "uint8"
        }
      ],
      "payable": false,
      "stateMutability": "view",
      "type": "function"
    },
    {
      "constant": true,
      "inputs": [],
      "name": "lastValue",
      "outputs": [
        {
          "internalType": "uint32",
          "name": "",
          "type": "uint32"
        }
      ],
      "payable": false,
      "stateMutability": "view",
      "type": "function"
    },
    {
      "constant": true,
      "inputs": [
        {
          "internalType": "address",
          "name": "",
          "type": "address"
        }
      ],
      "name": "players",
      "outputs": [
        {
          "internalType": "address",
          "name": "playerAddress",
          "type": "address"
        },
        {
          "internalType": "uint32",
          "name": "chipsAmmount",
          "type": "uint32"
        },
        {
          "internalType": "address",
          "name": "delegate",
          "type": "address"
        },
        {
          "internalType": "bool",
          "name": "hasCards",
          "type": "bool"
        },
        {
          "internalType": "bool",
          "name": "authorized",
          "type": "bool"
        },
        {
          "internalType": "uint32",
          "name": "sumPlayer",
          "type": "uint32"
        }
      ],
      "payable": false,
      "stateMutability": "view",
      "type": "function"
    },
    {
      "constant": false,
      "inputs": [
        {
          "internalType": "address",
          "name": "player",
          "type": "address"
        },
        {
          "internalType": "uint32",
          "name": "chips",
          "type": "uint32"
        }
      ],
      "name": "authorize",
      "outputs": [],
      "payable": false,
      "stateMutability": "nonpayable",
      "type": "function"
    },
    {
      "constant": false,
      "inputs": [
        {
          "internalType": "address",
          "name": "player",
          "type": "address"
        }
      ],
      "name": "giveCards",
      "outputs": [],
      "payable": false,
      "stateMutability": "nonpayable",
      "type": "function"
    },
    {
      "constant": false,
      "inputs": [
        {
          "internalType": "address",
          "name": "player",
          "type": "address"
        }
      ],
      "name": "checkScore",
      "outputs": [
        {
          "internalType": "uint32",
          "name": "",
          "type": "uint32"
        }
      ],
      "payable": false,
      "stateMutability": "nonpayable",
      "type": "function"
    }
  ],
  "bytecode": "0x608060405260006005553480156200001657600080fd5b5033600360006101000a81548173ffffffffffffffffffffffffffffffffffffffff021916908373ffffffffffffffffffffffffffffffffffffffff16021790555060008090505b60048160ff1610156200042b576000600290505b600a8160ff16116200012457600160405180604001604052806200009c846200043260201b60201c565b81526020018360ff16815250908060018154018082558091505090600182039060005260206000209060020201600090919290919091506000820151816000019080519060200190620000f192919062000585565b5060208201518160010160006101000a81548160ff021916908360ff160217905550505050808060010191505062000072565b50600160405180604001604052806040518060400160405280600481526020017f4a61636b000000000000000000000000000000000000000000000000000000008152508152602001600a60ff16815250908060018154018082558091505090600182039060005260206000209060020201600090919290919091506000820151816000019080519060200190620001be92919062000585565b5060208201518160010160006101000a81548160ff021916908360ff160217905550505050600160405180604001604052806040518060400160405280600481526020017f4c616479000000000000000000000000000000000000000000000000000000008152508152602001600a60ff168152509080600181540180825580915050906001820390600052602060002090600202016000909192909190915060008201518160000190805190602001906200027c92919062000585565b5060208201518160010160006101000a81548160ff021916908360ff160217905550505050600160405180604001604052806040518060400160405280600481526020017f4b696e67000000000000000000000000000000000000000000000000000000008152508152602001600a60ff168152509080600181540180825580915050906001820390600052602060002090600202016000909192909190915060008201518160000190805190602001906200033a92919062000585565b5060208201518160010160006101000a81548160ff021916908360ff160217905550505050600160405180604001604052806040518060400160405280600381526020017f41636500000000000000000000000000000000000000000000000000000000008152508152602001600b60ff16815250908060018154018082558091505090600182039060005260206000209060020201600090919290919091506000820151816000019080519060200190620003f892919062000585565b5060208201518160010160006101000a81548160ff021916908360ff16021790555050505080806001019150506200005e565b5062000634565b606060008260ff1614156200047f576040518060400160405280600181526020017f3000000000000000000000000000000000000000000000000000000000000000815250905062000580565b60008260ff16905060005b60008214620004af578080600101915050600a8281620004a657fe5b0491506200048a565b6060816040519080825280601f01601f191660200182016040528015620004e55781602001600182028038833980820191505090505b50905060008290505b60008660ff161462000578576001810390506000600a808860ff16816200051157fe5b04028703603001905060008160f81b9050808484815181106200053057fe5b60200101907effffffffffffffffffffffffffffffffffffffffffffffffffffffffffffff1916908160001a905350600a8860ff16816200056d57fe5b0497505050620004ee565b819450505050505b919050565b828054600181600116156101000203166002900490600052602060002090601f016020900481019282601f10620005c857805160ff1916838001178555620005f9565b82800160010185558215620005f9579182015b82811115620005f8578251825591602001919060010190620005db565b5b5090506200060891906200060c565b5090565b6200063191905b808211156200062d57600081600090555060010162000613565b5090565b90565b6111d880620006446000396000f3fe608060405234801561001057600080fd5b50600436106100885760003560e01c806365b1dafa1161005b57806365b1dafa146102235780639de2ee21146102d7578063e2eb41ff14610321578063f7f10b2c1461041457610088565b80630844eb3c1461008d5780633071614d146100e15780633b552a381461019557806343183834146101f9575b600080fd5b6100df600480360360408110156100a357600080fd5b81019080803573ffffffffffffffffffffffffffffffffffffffff169060200190929190803563ffffffff169060200190929190505050610458565b005b61010d600480360360208110156100f757600080fd5b810190808035906020019092919050505061079a565b60405180806020018360ff1660ff168152602001828103825284818151815260200191508051906020019080838360005b8381101561015957808201518184015260208101905061013e565b50505050905090810190601f1680156101865780820380516001836020036101000a031916815260200191505b50935050505060405180910390f35b6101d7600480360360208110156101ab57600080fd5b81019080803573ffffffffffffffffffffffffffffffffffffffff169060200190929190505050610870565b604051808263ffffffff1663ffffffff16815260200191505060405180910390f35b610201610aea565b604051808263ffffffff1663ffffffff16815260200191505060405180910390f35b61024f6004803603602081101561023957600080fd5b8101908080359060200190929190505050610aff565b60405180806020018360ff1660ff168152602001828103825284818151815260200191508051906020019080838360005b8381101561029b578082015181840152602081019050610280565b50505050905090810190601f1680156102c85780820380516001836020036101000a031916815260200191505b50935050505060405180910390f35b6102df610bd5565b604051808273ffffffffffffffffffffffffffffffffffffffff1673ffffffffffffffffffffffffffffffffffffffff16815260200191505060405180910390f35b6103636004803603602081101561033757600080fd5b81019080803573ffffffffffffffffffffffffffffffffffffffff169060200190929190505050610bfb565b604051808773ffffffffffffffffffffffffffffffffffffffff1673ffffffffffffffffffffffffffffffffffffffff1681526020018663ffffffff1663ffffffff1681526020018573ffffffffffffffffffffffffffffffffffffffff1673ffffffffffffffffffffffffffffffffffffffff16815260200184151515158152602001831515151581526020018263ffffffff1663ffffffff168152602001965050505050505060405180910390f35b6104566004803603602081101561042a57600080fd5b81019080803573ffffffffffffffffffffffffffffffffffffffff169060200190929190505050610cb1565b005b600360009054906101000a900473ffffffffffffffffffffffffffffffffffffffff1673ffffffffffffffffffffffffffffffffffffffff163373ffffffffffffffffffffffffffffffffffffffff161461051b576040517f08c379a00000000000000000000000000000000000000000000000000000000081526004018080602001828103825260188152602001807f4f6e6c79206465616c65722063616e20646f20746869732e000000000000000081525060200191505060405180910390fd5b81600460008473ffffffffffffffffffffffffffffffffffffffff1673ffffffffffffffffffffffffffffffffffffffff16815260200190815260200160002060000160006101000a81548173ffffffffffffffffffffffffffffffffffffffff021916908373ffffffffffffffffffffffffffffffffffffffff1602179055506001600460008473ffffffffffffffffffffffffffffffffffffffff1673ffffffffffffffffffffffffffffffffffffffff16815260200190815260200160002060010160156101000a81548160ff0219169083151502179055506000600460008473ffffffffffffffffffffffffffffffffffffffff1673ffffffffffffffffffffffffffffffffffffffff16815260200190815260200160002060010160146101000a81548160ff0219169083151502179055506000600460008473ffffffffffffffffffffffffffffffffffffffff1673ffffffffffffffffffffffffffffffffffffffff16815260200190815260200160002060010160166101000a81548163ffffffff021916908363ffffffff16021790555033600460008473ffffffffffffffffffffffffffffffffffffffff1673ffffffffffffffffffffffffffffffffffffffff16815260200190815260200160002060010160006101000a81548173ffffffffffffffffffffffffffffffffffffffff021916908373ffffffffffffffffffffffffffffffffffffffff16021790555080600460008473ffffffffffffffffffffffffffffffffffffffff1673ffffffffffffffffffffffffffffffffffffffff16815260200190815260200160002060000160146101000a81548163ffffffff021916908363ffffffff1602179055505050565b600281815481106107a757fe5b9060005260206000209060020201600091509050806000018054600181600116156101000203166002900480601f0160208091040260200160405190810160405280929190818152602001828054600181600116156101000203166002900480156108535780601f1061082857610100808354040283529160200191610853565b820191906000526020600020905b81548152906001019060200180831161083657829003601f168201915b5050505050908060010160009054906101000a900460ff16905082565b6000600460008373ffffffffffffffffffffffffffffffffffffffff1673ffffffffffffffffffffffffffffffffffffffff16815260200190815260200160002060010160149054906101000a900460ff16610934576040517f08c379a00000000000000000000000000000000000000000000000000000000081526004018080602001828103825260198152602001807f506c6179657220646f65736e277420686176652063617264730000000000000081525060200191505060405180910390fd5b60008060006101000a81548163ffffffff021916908363ffffffff16021790555060008090505b600460008473ffffffffffffffffffffffffffffffffffffffff1673ffffffffffffffffffffffffffffffffffffffff168152602001908152602001600020600201805490508160ff161015610a5e57600460008473ffffffffffffffffffffffffffffffffffffffff1673ffffffffffffffffffffffffffffffffffffffff1681526020019081526020016000206002018160ff16815481106109fb57fe5b906000526020600020906002020160010160009054906101000a900460ff1660ff166000808282829054906101000a900463ffffffff160192506101000a81548163ffffffff021916908363ffffffff160217905550808060010191505061095b565b506000809054906101000a900463ffffffff16600460008473ffffffffffffffffffffffffffffffffffffffff1673ffffffffffffffffffffffffffffffffffffffff16815260200190815260200160002060010160166101000a81548163ffffffff021916908363ffffffff1602179055506000809054906101000a900463ffffffff169050919050565b6000809054906101000a900463ffffffff1681565b60018181548110610b0c57fe5b9060005260206000209060020201600091509050806000018054600181600116156101000203166002900480601f016020809104026020016040519081016040528092919081815260200182805460018160011615610100020316600290048015610bb85780601f10610b8d57610100808354040283529160200191610bb8565b820191906000526020600020905b815481529060010190602001808311610b9b57829003601f168201915b5050505050908060010160009054906101000a900460ff16905082565b600360009054906101000a900473ffffffffffffffffffffffffffffffffffffffff1681565b60046020528060005260406000206000915090508060000160009054906101000a900473ffffffffffffffffffffffffffffffffffffffff16908060000160149054906101000a900463ffffffff16908060010160009054906101000a900473ffffffffffffffffffffffffffffffffffffffff16908060010160149054906101000a900460ff16908060010160159054906101000a900460ff16908060010160169054906101000a900463ffffffff16905086565b600360009054906101000a900473ffffffffffffffffffffffffffffffffffffffff1673ffffffffffffffffffffffffffffffffffffffff163373ffffffffffffffffffffffffffffffffffffffff1614610d74576040517f08c379a00000000000000000000000000000000000000000000000000000000081526004018080602001828103825260188152602001807f4f6e6c79206465616c65722063616e20646f20746869732e000000000000000081525060200191505060405180910390fd5b600460008273ffffffffffffffffffffffffffffffffffffffff1673ffffffffffffffffffffffffffffffffffffffff16815260200190815260200160002060010160149054906101000a900460ff1615610e37576040517f08c379a000000000000000000000000000000000000000000000000000000000815260040180806020018281038252601d8152602001807f54686520706c6179657220616c7265616479206861732063617264732e00000081525060200191505060405180910390fd5b6000610e41611071565b90506000610e4d611071565b9050600460008473ffffffffffffffffffffffffffffffffffffffff1673ffffffffffffffffffffffffffffffffffffffff16815260200190815260200160002060020160018381548110610e9e57fe5b90600052602060002090600202019080600181540180825580915050906001820390600052602060002090600202016000909192909190915060008201816000019080546001816001161561010002031660029004610efe9291906110f7565b506001820160009054906101000a900460ff168160010160006101000a81548160ff021916908360ff160217905550505050600460008473ffffffffffffffffffffffffffffffffffffffff1673ffffffffffffffffffffffffffffffffffffffff16815260200190815260200160002060020160018281548110610f7f57fe5b90600052602060002090600202019080600181540180825580915050906001820390600052602060002090600202016000909192909190915060008201816000019080546001816001161561010002031660029004610fdf9291906110f7565b506001820160009054906101000a900460ff168160010160006101000a81548160ff021916908360ff1602179055505050506001600460008573ffffffffffffffffffffffffffffffffffffffff1673ffffffffffffffffffffffffffffffffffffffff16815260200190815260200160002060010160146101000a81548160ff021916908315150217905550505050565b6000600560008154809291906001019190505550603233600554604051602001808373ffffffffffffffffffffffffffffffffffffffff1673ffffffffffffffffffffffffffffffffffffffff1660601b8152601401828152602001925050506040516020818303038152906040528051906020012060001c816110f157fe5b06905090565b828054600181600116156101000203166002900490600052602060002090601f016020900481019282601f10611130578054855561116d565b8280016001018555821561116d57600052602060002091601f016020900482015b8281111561116c578254825591600101919060010190611151565b5b50905061117a919061117e565b5090565b6111a091905b8082111561119c576000816000905550600101611184565b5090565b9056fea265627a7a72315820da1d9ba9dbc626961d8776cc66ac3139b33784711c56bb82922434b76bdaefd364736f6c63430005100032",
  "source": "// SPDX-License-Identifier: MIT\npragma solidity >=0.4.22 <0.9.0;\n\ncontract BlackJack {\n    struct Player {\n        address playerAddress; //имя игрока\n        uint32 chipsAmmount; //количество фишек\n        address delegate; // дилер, с которым он играет\n        bool hasCards;\n        bool authorized;\n        uint32 sumPlayer;\n        Card[] cards;\n    }\n    struct Card {\n        string name; //название карты\n        uint8 rate; //насколько карта сильна\n    }\n    uint32 public lastValue;\n    Card[] public deck; //колода карт\n    Card[] public dealerCards; //карты дилера\n    address public dealer; //адрес дилера\n    mapping(address => Player) public players; // все адреса являются игроками\n\n    function authorize(address player, uint32 chips) public dealerOnly {\n        //авторизуем\n        players[player].playerAddress = player;\n        players[player].authorized = true;\n        players[player].hasCards = false;\n        players[player].sumPlayer = 0;\n        players[player].delegate = msg.sender;\n        players[player].chipsAmmount = chips;\n    }\n\n    function giveCards(address player) public dealerOnly {\n        //Раздать карты\n        require(!players[player].hasCards, \"The player already has cards.\");\n        //Здесь реализуем раздачу карт\n\n        uint256 card1 = rand();\n        uint256 card2 = rand();\n\n        players[player].cards.push(deck[card1]);\n        players[player].cards.push(deck[card2]);\n        players[player].hasCards = true;\n    }\n\n    function checkScore(address player) public returns (uint32) {\n        require(\n            players[player].hasCards,\n            \"Player doesn't have cards\" // у игрока нет карт\n        );\n        lastValue = 0;\n        for (uint8 i = 0; i < players[player].cards.length; i++) {\n            lastValue += players[player].cards[i].rate;\n        }\n        players[player].sumPlayer = lastValue;\n        return lastValue;\n    }\n\n    constructor() public {\n        dealer = msg.sender;\n\n        //в колоде 52 карты, заполняем их\n        for (uint8 i = 0; i < 4; i++) {\n            //заполняем карты от 2 до 10\n            for (uint8 j = 2; j <= 10; j++) {\n                deck.push(Card({name: uint2str(j), rate: j}));\n            }\n            deck.push(\n                Card({\n                    name: \"Jack\", //валет\n                    rate: 10\n                })\n            );\n            deck.push(\n                Card({\n                    name: \"Lady\", //дама\n                    rate: 10\n                })\n            );\n            deck.push(\n                Card({\n                    name: \"King\", //король\n                    rate: 10\n                })\n            );\n            deck.push(\n                Card({\n                    name: \"Ace\", //туз\n                    rate: 11\n                })\n            );\n        }\n    }\n\n    //Вспомогательные функции\n\n    modifier dealerOnly() {\n        require(msg.sender == dealer, \"Only dealer can do this.\");\n        _;\n    }\n\n    // Intializing the state variable\n    uint256 randNonce = 0;\n\n    // Defining a function to generate\n    // a random number\n    function rand() internal returns (uint256) {\n        // increase nonce\n        randNonce++;\n        return uint256(keccak256(abi.encodePacked(msg.sender, randNonce))) % 50;\n    }\n\n    function toBytes(uint256 x) private pure returns (bytes memory b) {\n        b = new bytes(32);\n        assembly {\n            mstore(add(b, 32), x)\n        }\n    }\n\n    function uint2str(uint8 _i)\n        internal\n        pure\n        returns (string memory _uintAsString)\n    {\n        if (_i == 0) {\n            return \"0\";\n        }\n        uint256 j = _i;\n        uint256 len;\n        while (j != 0) {\n            len++;\n            j /= 10;\n        }\n        bytes memory bstr = new bytes(len);\n        uint256 k = len;\n        while (_i != 0) {\n            k = k - 1;\n            uint8 temp = (48 + uint8(_i - (_i / 10) * 10));\n            bytes1 b1 = bytes1(temp);\n            bstr[k] = b1;\n            _i /= 10;\n        }\n        return string(bstr);\n    }\n}\n",
  "sourcePath": "/Users/mikhail/Documents/BlackJackEth/contracts/BlackJack.sol",
  "compiler": {
    "name": "solc",
    "version": "0.5.16+commit.9c3226ce.Emscripten.clang"
  },
  "schemaVersion": "3.3.4",
  "updatedAt": "2021-03-29T22:24:27.621Z",
  "networkType": "ethereum",
  "devdoc": {
    "methods": {}
  },
  "userdoc": {
    "methods": {}
  }
}