{
  "contractName": "BlackJack",
  "abi": [
    {
      "inputs": [],
      "payable": false,
      "stateMutability": "nonpayable",
      "type": "constructor"
    },
    {
      "anonymous": false,
      "inputs": [
        {
          "indexed": false,
          "internalType": "address",
          "name": "d",
          "type": "address"
        },
        {
          "indexed": false,
          "internalType": "uint256",
          "name": "sumd",
          "type": "uint256"
        },
        {
          "indexed": false,
          "internalType": "address",
          "name": "p",
          "type": "address"
        },
        {
          "indexed": false,
          "internalType": "uint256",
          "name": "sump",
          "type": "uint256"
        }
      ],
      "name": "Compare",
      "type": "event"
    },
    {
      "anonymous": false,
      "inputs": [
        {
          "indexed": false,
          "internalType": "address",
          "name": "_from",
          "type": "address"
        },
        {
          "indexed": false,
          "internalType": "uint256",
          "name": "_value",
          "type": "uint256"
        }
      ],
      "name": "Deposit",
      "type": "event"
    },
    {
      "anonymous": false,
      "inputs": [
        {
          "indexed": false,
          "internalType": "address",
          "name": "_from",
          "type": "address"
        },
        {
          "indexed": false,
          "internalType": "uint256",
          "name": "sum",
          "type": "uint256"
        }
      ],
      "name": "Get_Cards",
      "type": "event"
    },
    {
      "constant": true,
      "inputs": [
        {
          "internalType": "uint256",
          "name": "",
          "type": "uint256"
        }
      ],
      "name": "deck",
      "outputs": [
        {
          "internalType": "string",
          "name": "name",
          "type": "string"
        },
        {
          "internalType": "uint8",
          "name": "rate",
          "type": "uint8"
        }
      ],
      "payable": false,
      "stateMutability": "view",
      "type": "function"
    },
    {
      "constant": true,
      "inputs": [],
      "name": "standD",
      "outputs": [
        {
          "internalType": "bool",
          "name": "",
          "type": "bool"
        }
      ],
      "payable": false,
      "stateMutability": "view",
      "type": "function"
    },
    {
      "constant": true,
      "inputs": [],
      "name": "standP",
      "outputs": [
        {
          "internalType": "bool",
          "name": "",
          "type": "bool"
        }
      ],
      "payable": false,
      "stateMutability": "view",
      "type": "function"
    },
    {
      "constant": false,
      "inputs": [],
      "name": "choose_dealer",
      "outputs": [],
      "payable": true,
      "stateMutability": "payable",
      "type": "function"
    },
    {
      "constant": false,
      "inputs": [],
      "name": "choose_player",
      "outputs": [],
      "payable": true,
      "stateMutability": "payable",
      "type": "function"
    },
    {
      "constant": false,
      "inputs": [],
      "name": "add_money_player",
      "outputs": [],
      "payable": true,
      "stateMutability": "payable",
      "type": "function"
    },
    {
      "constant": false,
      "inputs": [],
      "name": "add_money_dealer",
      "outputs": [],
      "payable": true,
      "stateMutability": "payable",
      "type": "function"
    },
    {
      "constant": false,
      "inputs": [],
      "name": "giveCards",
      "outputs": [],
      "payable": false,
      "stateMutability": "nonpayable",
      "type": "function"
    },
    {
      "constant": false,
      "inputs": [],
      "name": "hit_dealer",
      "outputs": [],
      "payable": false,
      "stateMutability": "nonpayable",
      "type": "function"
    },
    {
      "constant": false,
      "inputs": [],
      "name": "hit_player",
      "outputs": [],
      "payable": false,
      "stateMutability": "nonpayable",
      "type": "function"
    },
    {
      "constant": false,
      "inputs": [],
      "name": "stand",
      "outputs": [],
      "payable": false,
      "stateMutability": "nonpayable",
      "type": "function"
    },
    {
      "constant": false,
      "inputs": [],
      "name": "check_cards",
      "outputs": [],
      "payable": false,
      "stateMutability": "nonpayable",
      "type": "function"
    },
    {
      "constant": false,
      "inputs": [],
      "name": "checkWinner",
      "outputs": [],
      "payable": false,
      "stateMutability": "nonpayable",
      "type": "function"
    },
    {
      "constant": true,
      "inputs": [],
      "name": "check",
      "outputs": [
        {
          "internalType": "address",
          "name": "",
          "type": "address"
        }
      ],
      "payable": false,
      "stateMutability": "view",
      "type": "function"
    }
  ],
  "bytecode": "0x60806040526000600a553480156200001657600080fd5b506000600460010181905550600080600101819055506000600460020160006101000a81548163ffffffff021916908363ffffffff16021790555060008060020160016101000a81548163ffffffff021916908363ffffffff160217905550620000856200008b60201b60201c565b62000693565b6034600960166101000a81548163ffffffff021916908363ffffffff16021790555060008090505b60048160ff16101562000480576000600290505b600a8160ff1611620001795760086040518060400160405280620000f1846200048360201b60201c565b81526020018360ff1681525090806001815401808255809150509060018203906000526020600020906002020160009091929091909150600082015181600001908051906020019062000146929190620005e4565b5060208201518160010160006101000a81548160ff021916908360ff1602179055505050508080600101915050620000c7565b50600860405180604001604052806040518060400160405280600481526020017f4a61636b000000000000000000000000000000000000000000000000000000008152508152602001600a60ff1681525090806001815401808255809150509060018203906000526020600020906002020160009091929091909150600082015181600001908051906020019062000213929190620005e4565b5060208201518160010160006101000a81548160ff021916908360ff160217905550505050600860405180604001604052806040518060400160405280600481526020017f4c616479000000000000000000000000000000000000000000000000000000008152508152602001600a60ff16815250908060018154018082558091505090600182039060005260206000209060020201600090919290919091506000820151816000019080519060200190620002d1929190620005e4565b5060208201518160010160006101000a81548160ff021916908360ff160217905550505050600860405180604001604052806040518060400160405280600481526020017f4b696e67000000000000000000000000000000000000000000000000000000008152508152602001600a60ff168152509080600181540180825580915050906001820390600052602060002090600202016000909192909190915060008201518160000190805190602001906200038f929190620005e4565b5060208201518160010160006101000a81548160ff021916908360ff160217905550505050600860405180604001604052806040518060400160405280600381526020017f41636500000000000000000000000000000000000000000000000000000000008152508152602001600b60ff168152509080600181540180825580915050906001820390600052602060002090600202016000909192909190915060008201518160000190805190602001906200044d929190620005e4565b5060208201518160010160006101000a81548160ff021916908360ff1602179055505050508080600101915050620000b3565b50565b606060008260ff161415620004d0576040518060400160405280600181526020017f30000000000000000000000000000000000000000000000000000000000000008152509050620005df565b60008260ff16905060008090505b6000821462000503578080600101915050600a8281620004fa57fe5b049150620004de565b6060816040519080825280601f01601f191660200182016040528015620005395781602001600182028038833980820191505090505b50905060008290505b600115620005d7576001810390506000600a808860ff16816200056157fe5b04028703603001905060008160f81b9050808484815181106200058057fe5b60200101907effffffffffffffffffffffffffffffffffffffffffffffffffffffffffffff1916908160001a905350600a8860ff1681620005bd57fe5b04975060008860ff1614620005d457505062000542565b50505b819450505050505b919050565b828054600181600116156101000203166002900490600052602060002090601f016020900481019282601f106200062757805160ff191683800117855562000658565b8280016001018555821562000658579182015b82811115620006575782518255916020019190600101906200063a565b5b5090506200066791906200066b565b5090565b6200069091905b808211156200068c57600081600090555060010162000672565b5090565b90565b6125b780620006a36000396000f3fe6080604052600436106100dd5760003560e01c8063ad38867e1161007f578063d0fc60bd11610059578063d0fc60bd146102bb578063e3107de9146102d2578063f1924820146102e9578063f8ba0c6814610300576100dd565b8063ad38867e14610283578063b3f048251461029a578063c2897b10146102a4576100dd565b80637310c2ef116100bb5780637310c2ef146101e95780638f801d8614610218578063919840ad14610222578063ab73821314610279576100dd565b80633f7063a2146100e257806365b1dafa1461011157806365c5d425146101d2575b600080fd5b3480156100ee57600080fd5b506100f761030a565b604051808215151515815260200191505060405180910390f35b34801561011d57600080fd5b5061014a6004803603602081101561013457600080fd5b810190808035906020019092919050505061031d565b60405180806020018360ff1660ff168152602001828103825284818151815260200191508051906020019080838360005b8381101561019657808201518184015260208101905061017b565b50505050905090810190601f1680156101c35780820380516001836020036101000a031916815260200191505b50935050505060405180910390f35b3480156101de57600080fd5b506101e76103f3565b005b3480156101f557600080fd5b506101fe6105f7565b604051808215151515815260200191505060405180910390f35b61022061060a565b005b34801561022e57600080fd5b5061023761074f565b604051808273ffffffffffffffffffffffffffffffffffffffff1673ffffffffffffffffffffffffffffffffffffffff16815260200191505060405180910390f35b610281610779565b005b34801561028f57600080fd5b5061029861093e565b005b6102a2610ed8565b005b3480156102b057600080fd5b506102b9610f92565b005b3480156102c757600080fd5b506102d0611029565b005b3480156102de57600080fd5b506102e7611491565b005b3480156102f557600080fd5b506102fe6116b2565b005b610308611c3f565b005b600960159054906101000a900460ff1681565b6008818154811061032a57fe5b9060005260206000209060020201600091509050806000018054600181600116156101000203166002900480601f0160208091040260200160405190810160405280929190818152602001828054600181600116156101000203166002900480156103d65780601f106103ab576101008083540402835291602001916103d6565b820191906000526020600020905b8154815290600101906020018083116103b957829003601f168201915b5050505050908060010160009054906101000a900460ff16905082565b600060020160009054906101000a900460ff16610478576040517f08c379a00000000000000000000000000000000000000000000000000000000081526004018080602001828103825260198152602001807f506c6179657220646f65736e277420686176652063617264730000000000000081525060200191505060405180910390fd5b60008060020160016101000a81548163ffffffff021916908363ffffffff1602179055506000600460020160006101000a81548163ffffffff021916908363ffffffff16021790555060008090505b6000600301805490508163ffffffff16101561055a5760006003018163ffffffff16815481106104f357fe5b906000526020600020906002020160010160009054906101000a900460ff1660ff16600060020160018282829054906101000a900463ffffffff160192506101000a81548163ffffffff021916908363ffffffff16021790555080806001019150506104c7565b5060008090505b6004600301805490508163ffffffff1610156105f45760046003018163ffffffff168154811061058d57fe5b906000526020600020906002020160010160009054906101000a900460ff1660ff16600460020160008282829054906101000a900463ffffffff160192506101000a81548163ffffffff021916908363ffffffff1602179055508080600101915050610561565b50565b600960149054906101000a900460ff1681565b6000800160009054906101000a900473ffffffffffffffffffffffffffffffffffffffff1673ffffffffffffffffffffffffffffffffffffffff163373ffffffffffffffffffffffffffffffffffffffff16146106cf576040517f08c379a000000000000000000000000000000000000000000000000000000000815260040180806020018281038252601a8152602001807f4f6e6c7920706c617965722063616e2063616c6c20746869732e00000000000081525060200191505060405180910390fd5b346000600101600082825401925050819055507fe1fffcc4923d04b559f4d29a8bfc6cda04eb5b0d3c460751c2402c5c5cc9109c3334604051808373ffffffffffffffffffffffffffffffffffffffff1673ffffffffffffffffffffffffffffffffffffffff1681526020018281526020019250505060405180910390a1565b6000600960009054906101000a900473ffffffffffffffffffffffffffffffffffffffff16905090565b600460000160009054906101000a900473ffffffffffffffffffffffffffffffffffffffff1673ffffffffffffffffffffffffffffffffffffffff163373ffffffffffffffffffffffffffffffffffffffff161461083f576040517f08c379a000000000000000000000000000000000000000000000000000000000815260040180806020018281038252601a8152602001807f4f6e6c79206465616c65722063616e2063616c6c20746869732e00000000000081525060200191505060405180910390fd5b346004600101600082825401925050819055507fe1fffcc4923d04b559f4d29a8bfc6cda04eb5b0d3c460751c2402c5c5cc9109c3334604051808373ffffffffffffffffffffffffffffffffffffffff1673ffffffffffffffffffffffffffffffffffffffff1681526020018281526020019250505060405180910390a16004600101546000600101541461093c576040517f08c379a00000000000000000000000000000000000000000000000000000000081526004018080602001828103825260178152602001807f5261746573206d757374206265207468652073616d652e00000000000000000081525060200191505060405180910390fd5b565b600460010154600060010154146109bd576040517f08c379a00000000000000000000000000000000000000000000000000000000081526004018080602001828103825260178152602001807f5261746573206d757374206265207468652073616d652e00000000000000000081525060200191505060405180910390fd5b60011515600960149054906101000a900460ff1615151480156109f3575060011515600960159054906101000a900460ff161515145b610a65576040517f08c379a00000000000000000000000000000000000000000000000000000000081526004018080602001828103825260138152602001807f4e6f7420616c6c206d61646520277374616e640000000000000000000000000081525060200191505060405180910390fd5b600460020160009054906101000a900463ffffffff1663ffffffff16600060020160019054906101000a900463ffffffff1663ffffffff16118015610ac657506015600060020160019054906101000a900463ffffffff1663ffffffff1611155b15610bac576000800160009054906101000a900473ffffffffffffffffffffffffffffffffffffffff1673ffffffffffffffffffffffffffffffffffffffff166108fc600060010154600460010154019081150290604051600060405180830381858888f19350505050158015610b41573d6000803e3d6000fd5b506000800160009054906101000a900473ffffffffffffffffffffffffffffffffffffffff16600960006101000a81548173ffffffffffffffffffffffffffffffffffffffff021916908373ffffffffffffffffffffffffffffffffffffffff160217905550610db0565b600460020160009054906101000a900463ffffffff1663ffffffff16600060020160019054906101000a900463ffffffff1663ffffffff161415610cd057600460000160009054906101000a900473ffffffffffffffffffffffffffffffffffffffff1673ffffffffffffffffffffffffffffffffffffffff166108fc6004600101549081150290604051600060405180830381858888f19350505050158015610c5a573d6000803e3d6000fd5b506000800160009054906101000a900473ffffffffffffffffffffffffffffffffffffffff1673ffffffffffffffffffffffffffffffffffffffff166108fc6000600101549081150290604051600060405180830381858888f19350505050158015610cca573d6000803e3d6000fd5b50610daf565b600460000160009054906101000a900473ffffffffffffffffffffffffffffffffffffffff1673ffffffffffffffffffffffffffffffffffffffff166108fc600060010154600460010154019081150290604051600060405180830381858888f19350505050158015610d47573d6000803e3d6000fd5b50600460000160009054906101000a900473ffffffffffffffffffffffffffffffffffffffff16600960006101000a81548173ffffffffffffffffffffffffffffffffffffffff021916908373ffffffffffffffffffffffffffffffffffffffff1602179055505b5b7f801142d4815df6228c2504370343b430ea366897420d133fe209e047747106ba600460000160009054906101000a900473ffffffffffffffffffffffffffffffffffffffff16600460020160009054906101000a900463ffffffff166000800160009054906101000a900473ffffffffffffffffffffffffffffffffffffffff16600060020160019054906101000a900463ffffffff16604051808573ffffffffffffffffffffffffffffffffffffffff1673ffffffffffffffffffffffffffffffffffffffff1681526020018463ffffffff1681526020018373ffffffffffffffffffffffffffffffffffffffff1673ffffffffffffffffffffffffffffffffffffffff1681526020018263ffffffff16815260200194505050505060405180910390a1565b34600060010181905550336000800160006101000a81548173ffffffffffffffffffffffffffffffffffffffff021916908373ffffffffffffffffffffffffffffffffffffffff1602179055507fe1fffcc4923d04b559f4d29a8bfc6cda04eb5b0d3c460751c2402c5c5cc9109c3334604051808373ffffffffffffffffffffffffffffffffffffffff1673ffffffffffffffffffffffffffffffffffffffff1681526020018281526020019250505060405180910390a1565b600460000160009054906101000a900473ffffffffffffffffffffffffffffffffffffffff1673ffffffffffffffffffffffffffffffffffffffff163373ffffffffffffffffffffffffffffffffffffffff16141561100b576001600960156101000a81548160ff021916908315150217905550611027565b6001600960146101000a81548160ff0219169083151502179055505b565b600460000160009054906101000a900473ffffffffffffffffffffffffffffffffffffffff1673ffffffffffffffffffffffffffffffffffffffff163373ffffffffffffffffffffffffffffffffffffffff16146110ef576040517f08c379a000000000000000000000000000000000000000000000000000000000815260040180806020018281038252601a8152602001807f4f6e6c79206465616c65722063616e2063616c6c20746869732e00000000000081525060200191505060405180910390fd5b6110f76103f3565b6011600460020160009054906101000a900463ffffffff1663ffffffff161115611189576040517f08c379a00000000000000000000000000000000000000000000000000000000081526004018080602001828103825260148152602001807f546f74616c20706f696e7473206f76657220313700000000000000000000000081525060200191505060405180910390fd5b6000611193611cfa565b90506004600301600882815481106111a757fe5b9060005260206000209060020201908060018154018082558091505090600182039060005260206000209060020201600090919290919091506000820181600001908054600181600116156101000203166002900461120792919061248e565b506001820160009054906101000a900460ff168160010160006101000a81548160ff021916908360ff1602179055505050506008818154811061124657fe5b906000526020600020906002020160010160009054906101000a900460ff1660ff16600460020160008282829054906101000a900463ffffffff160192506101000a81548163ffffffff021916908363ffffffff16021790555060086001600960169054906101000a900463ffffffff160363ffffffff16815481106112c857fe5b9060005260206000209060020201600882815481106112e357fe5b90600052602060002090600202016000820181600001908054600181600116156101000203166002900461131892919061248e565b506001820160009054906101000a900460ff168160010160006101000a81548160ff021916908360ff16021790555090505060086001600960169054906101000a900463ffffffff160363ffffffff168154811061137257fe5b9060005260206000209060020201600080820160006113919190612515565b6001820160006101000a81549060ff021916905550506009601681819054906101000a900463ffffffff16809291906001900391906101000a81548163ffffffff021916908363ffffffff160217905550507fb79970cf7e85476cae318f2f10e3b68525cf8e5b3a153f12a89ecb2f2edf9a01600460000160009054906101000a900473ffffffffffffffffffffffffffffffffffffffff16600460020160009054906101000a900463ffffffff16604051808373ffffffffffffffffffffffffffffffffffffffff1673ffffffffffffffffffffffffffffffffffffffff1681526020018263ffffffff1681526020019250505060405180910390a150565b6000800160009054906101000a900473ffffffffffffffffffffffffffffffffffffffff1673ffffffffffffffffffffffffffffffffffffffff163373ffffffffffffffffffffffffffffffffffffffff1614611556576040517f08c379a000000000000000000000000000000000000000000000000000000000815260040180806020018281038252601a8152602001807f4f6e6c7920706c617965722063616e2063616c6c20746869732e00000000000081525060200191505060405180910390fd5b61155e6103f3565b6015600060020160019054906101000a900463ffffffff1663ffffffff1611156115f0576040517f08c379a00000000000000000000000000000000000000000000000000000000081526004018080602001828103825260208152602001807f596f75277665206c6f73742e546f74616c20706f696e7473206f76657220323181525060200191505060405180910390fd5b60006115fa611cfa565b905061160581611d97565b7fb79970cf7e85476cae318f2f10e3b68525cf8e5b3a153f12a89ecb2f2edf9a016000800160009054906101000a900473ffffffffffffffffffffffffffffffffffffffff16600060020160019054906101000a900463ffffffff16604051808373ffffffffffffffffffffffffffffffffffffffff1673ffffffffffffffffffffffffffffffffffffffff1681526020018263ffffffff1681526020019250505060405180910390a150565b600460000160009054906101000a900473ffffffffffffffffffffffffffffffffffffffff1673ffffffffffffffffffffffffffffffffffffffff163373ffffffffffffffffffffffffffffffffffffffff1614611778576040517f08c379a000000000000000000000000000000000000000000000000000000000815260040180806020018281038252601a8152602001807f4f6e6c79206465616c65722063616e2063616c6c20746869732e00000000000081525060200191505060405180910390fd5b600060020160009054906101000a900460ff16156117fe576040517f08c379a000000000000000000000000000000000000000000000000000000000815260040180806020018281038252601d8152602001807f54686520706c6179657220616c7265616479206861732063617264732e00000081525060200191505060405180910390fd5b6000600880549050141561187a576040517f08c379a000000000000000000000000000000000000000000000000000000000815260040180806020018281038252601a8152602001807f4e6f206d6f726520636172647320696e20746865206465636b2100000000000081525060200191505060405180910390fd5b6000611884611cfa565b905060046003016008828154811061189857fe5b906000526020600020906002020190806001815401808255809150509060018203906000526020600020906002020160009091929091909150600082018160000190805460018160011615610100020316600290046118f892919061248e565b506001820160009054906101000a900460ff168160010160006101000a81548160ff021916908360ff1602179055505050506008818154811061193757fe5b906000526020600020906002020160010160009054906101000a900460ff1660ff16600460020160008282829054906101000a900463ffffffff160192506101000a81548163ffffffff021916908363ffffffff16021790555060086001600960169054906101000a900463ffffffff160363ffffffff16815481106119b957fe5b9060005260206000209060020201600882815481106119d457fe5b906000526020600020906002020160008201816000019080546001816001161561010002031660029004611a0992919061248e565b506001820160009054906101000a900460ff168160010160006101000a81548160ff021916908360ff16021790555090505060086001600960169054906101000a900463ffffffff160363ffffffff1681548110611a6357fe5b906000526020600020906002020160008082016000611a829190612515565b6001820160006101000a81549060ff021916905550506009601681819054906101000a900463ffffffff16809291906001900391906101000a81548163ffffffff021916908363ffffffff160217905550506000611ade611cfa565b90506000611aea611cfa565b9050611af68282611fee565b6001600060020160006101000a81548160ff0219169083151502179055507f801142d4815df6228c2504370343b430ea366897420d133fe209e047747106ba600460000160009054906101000a900473ffffffffffffffffffffffffffffffffffffffff16600460020160009054906101000a900463ffffffff166000800160009054906101000a900473ffffffffffffffffffffffffffffffffffffffff16600060020160019054906101000a900463ffffffff16604051808573ffffffffffffffffffffffffffffffffffffffff1673ffffffffffffffffffffffffffffffffffffffff1681526020018463ffffffff1681526020018373ffffffffffffffffffffffffffffffffffffffff1673ffffffffffffffffffffffffffffffffffffffff1681526020018263ffffffff16815260200194505050505060405180910390a1505050565b33600460000160006101000a81548173ffffffffffffffffffffffffffffffffffffffff021916908373ffffffffffffffffffffffffffffffffffffffff160217905550346004600101819055507fe1fffcc4923d04b559f4d29a8bfc6cda04eb5b0d3c460751c2402c5c5cc9109c3334604051808373ffffffffffffffffffffffffffffffffffffffff1673ffffffffffffffffffffffffffffffffffffffff1681526020018281526020019250505060405180910390a1565b6000600a60008154809291906001019190505550600960169054906101000a900463ffffffff1663ffffffff1633600a54604051602001808373ffffffffffffffffffffffffffffffffffffffff1673ffffffffffffffffffffffffffffffffffffffff1660601b8152601401828152602001925050506040516020818303038152906040528051906020012060001c81611d9157fe5b06905090565b6000600890506000600301818381548110611dae57fe5b90600052602060002090600202019080600181540180825580915050906001820390600052602060002090600202016000909192909190915060008201816000019080546001816001161561010002031660029004611e0e92919061248e565b506001820160009054906101000a900460ff168160010160006101000a81548160ff021916908360ff16021790555050505060088281548110611e4d57fe5b906000526020600020906002020160010160009054906101000a900460ff1660ff16600060020160018282829054906101000a900463ffffffff160192506101000a81548163ffffffff021916908363ffffffff16021790555060086001600960169054906101000a900463ffffffff160363ffffffff1681548110611ecf57fe5b906000526020600020906002020160088381548110611eea57fe5b906000526020600020906002020160008201816000019080546001816001161561010002031660029004611f1f92919061248e565b506001820160009054906101000a900460ff168160010160006101000a81548160ff021916908360ff16021790555090505060086001600960169054906101000a900463ffffffff160363ffffffff1681548110611f7957fe5b906000526020600020906002020160008082016000611f989190612515565b6001820160006101000a81549060ff021916905550506009601681819054906101000a900463ffffffff16809291906001900391906101000a81548163ffffffff021916908363ffffffff160217905550505050565b60006003016008838154811061200057fe5b9060005260206000209060020201908060018154018082558091505090600182039060005260206000209060020201600090919290919091506000820181600001908054600181600116156101000203166002900461206092919061248e565b506001820160009054906101000a900460ff168160010160006101000a81548160ff021916908360ff1602179055505050506008828154811061209f57fe5b906000526020600020906002020160010160009054906101000a900460ff1660ff16600060020160018282829054906101000a900463ffffffff160192506101000a81548163ffffffff021916908363ffffffff16021790555060086001600960169054906101000a900463ffffffff160363ffffffff168154811061212157fe5b90600052602060002090600202016008838154811061213c57fe5b90600052602060002090600202016000820181600001908054600181600116156101000203166002900461217192919061248e565b506001820160009054906101000a900460ff168160010160006101000a81548160ff021916908360ff16021790555090505060086001600960169054906101000a900463ffffffff160363ffffffff16815481106121cb57fe5b9060005260206000209060020201600080820160006121ea9190612515565b6001820160006101000a81549060ff021916905550506009601681819054906101000a900463ffffffff16809291906001900391906101000a81548163ffffffff021916908363ffffffff1602179055505060006003016008828154811061224e57fe5b906000526020600020906002020190806001815401808255809150509060018203906000526020600020906002020160009091929091909150600082018160000190805460018160011615610100020316600290046122ae92919061248e565b506001820160009054906101000a900460ff168160010160006101000a81548160ff021916908360ff160217905550505050600881815481106122ed57fe5b906000526020600020906002020160010160009054906101000a900460ff1660ff16600060020160018282829054906101000a900463ffffffff160192506101000a81548163ffffffff021916908363ffffffff16021790555060086001600960169054906101000a900463ffffffff160363ffffffff168154811061236f57fe5b90600052602060002090600202016008828154811061238a57fe5b9060005260206000209060020201600082018160000190805460018160011615610100020316600290046123bf92919061248e565b506001820160009054906101000a900460ff168160010160006101000a81548160ff021916908360ff16021790555090505060086001600960169054906101000a900463ffffffff160363ffffffff168154811061241957fe5b9060005260206000209060020201600080820160006124389190612515565b6001820160006101000a81549060ff021916905550506009601681819054906101000a900463ffffffff16809291906001900391906101000a81548163ffffffff021916908363ffffffff160217905550505050565b828054600181600116156101000203166002900490600052602060002090601f016020900481019282601f106124c75780548555612504565b8280016001018555821561250457600052602060002091601f016020900482015b828111156125035782548255916001019190600101906124e8565b5b509050612511919061255d565b5090565b50805460018160011615610100020316600290046000825580601f1061253b575061255a565b601f016020900490600052602060002090810190612559919061255d565b5b50565b61257f91905b8082111561257b576000816000905550600101612563565b5090565b9056fea265627a7a723158201faf222467e86e3186e8a0a06f09a38fc74856253f190d8017c838be3571512864736f6c63430005100032",
  "source": "pragma solidity >=0.4.22 <0.7.0;\r\nimport \"./TokenERC20.sol\";\r\n\r\ncontract BlackJack  {\r\n    struct Player {\r\n        address payable name; // \r\n        uint256 cashAmmount; // \r\n        bool hasCards;\r\n        uint32 sumPlayer;\r\n        Card[] cards;\r\n    }\r\n    struct Card {\r\n        string name; // \r\n        uint8 rate; //  \r\n    }\r\n    struct Dealer {\r\n        address payable name; // \r\n        uint256 cashAmmount; // \r\n        uint32 sumDealer; //  \r\n        Card[] cards;\r\n    }\r\n    Player player;\r\n    Dealer dealer;\r\n    Card[] public deck; // \r\n\r\n    address winner;\r\n    bool public standP; //    \r\n    bool public standD; //    \r\n\r\n    uint32 constant Cards = 52;\r\n    uint32 ammountOfCards;\r\n\r\n    event Deposit(address _from, uint256 _value);\r\n    event Get_Cards(address _from, uint256 sum);\r\n    event Compare(address d, uint256 sumd, address p, uint256 sump);\r\n    modifier points_player() {\r\n        check_cards();\r\n        require(player.sumPlayer <= 21, \"You've lost.Total points over 21\");\r\n        _;\r\n    } //    \r\n\r\n    modifier points_dealer() {\r\n        check_cards();\r\n        require(dealer.sumDealer <= 17, \"Total points over 17\");\r\n        _;\r\n    } //    \r\n    modifier only_dealer() {\r\n        require(msg.sender == dealer.name, \"Only dealer can call this.\");\r\n        _;\r\n    }\r\n\r\n    modifier only_player() {\r\n        require(msg.sender == player.name, \"Only player can call this.\");\r\n        _;\r\n    }\r\n\r\n    function choose_dealer() public payable {\r\n        dealer.name = msg.sender;\r\n        dealer.cashAmmount = msg.value;\r\n        emit Deposit(msg.sender, msg.value);\r\n    } //   \r\n\r\n    function choose_player() public payable {\r\n        player.cashAmmount = msg.value;\r\n        player.name = msg.sender;\r\n        emit Deposit(msg.sender, msg.value);\r\n    } //   \r\n\r\n    function add_money_player() public payable only_player {\r\n        player.cashAmmount += msg.value;\r\n        emit Deposit(msg.sender, msg.value);\r\n    } //  \r\n\r\n    function add_money_dealer() public payable only_dealer {\r\n        dealer.cashAmmount += msg.value;\r\n        emit Deposit(msg.sender, msg.value);\r\n        require(\r\n            (player.cashAmmount) == dealer.cashAmmount,\r\n            \"Rates must be the same.\"\r\n        );\r\n    } //  \r\n\r\n    function giveToPlayer(uint256 card1, uint256 card2) private {\r\n        player.cards.push(deck[card1]);\r\n        player.sumPlayer += deck[card1].rate;\r\n        deck[card1] = deck[ammountOfCards - 1];\r\n        delete deck[ammountOfCards - 1];\r\n        ammountOfCards--;\r\n\r\n        player.cards.push(deck[card2]);\r\n        player.sumPlayer += deck[card2].rate;\r\n        deck[card2] = deck[ammountOfCards - 1];\r\n        delete deck[ammountOfCards - 1];\r\n        ammountOfCards--;\r\n    }\r\n\r\n    function giveToPlayer(uint256 card) private {\r\n        Card[] storage card1 = deck;\r\n        player.cards.push(card1[card]);\r\n        player.sumPlayer += deck[card].rate;\r\n        deck[card] = deck[ammountOfCards - 1];\r\n        delete deck[ammountOfCards - 1];\r\n        ammountOfCards--;\r\n    }\r\n\r\n    function giveCards() public only_dealer {\r\n        require(!player.hasCards, \"The player already has cards.\");\r\n        require(deck.length != 0, \"No more cards in the deck!\");\r\n\r\n        // \r\n        uint256 card = rand();\r\n        dealer.cards.push(deck[card]);\r\n        dealer.sumDealer += deck[card].rate;\r\n        deck[card] = deck[ammountOfCards - 1];\r\n        delete deck[ammountOfCards - 1];\r\n        ammountOfCards--;\r\n\r\n        uint256 card1 = rand();\r\n        uint256 card2 = rand();\r\n\r\n        giveToPlayer(card1, card2);\r\n\r\n        player.hasCards = true;\r\n        emit Compare(\r\n            dealer.name,\r\n            dealer.sumDealer,\r\n            player.name,\r\n            player.sumPlayer\r\n        );\r\n    } // \r\n\r\n    function hit_dealer() public only_dealer points_dealer {\r\n        uint256 cardDealer = rand();\r\n        dealer.cards.push(deck[cardDealer]);\r\n        dealer.sumDealer += deck[cardDealer].rate;\r\n        deck[cardDealer] = deck[ammountOfCards - 1];\r\n        delete deck[ammountOfCards - 1];\r\n        ammountOfCards--;\r\n        emit Get_Cards(dealer.name, dealer.sumDealer);\r\n    } //   \r\n\r\n    function hit_player() public only_player points_player {\r\n        uint256 cardPlayer = rand();\r\n        giveToPlayer(cardPlayer);\r\n        emit Get_Cards(player.name, player.sumPlayer);\r\n    }\r\n\r\n    function stand() public {\r\n        if (msg.sender == dealer.name) {\r\n            standD = true;\r\n        } else {\r\n            standP = true;\r\n        }\r\n    } //   \r\n\r\n    function check_cards() public {\r\n        require(\r\n            player.hasCards,\r\n            \"Player doesn't have cards\" //    \r\n        );\r\n        player.sumPlayer = 0;\r\n        dealer.sumDealer = 0;\r\n        for (uint32 i = 0; i < player.cards.length; i++) {\r\n            player.sumPlayer += player.cards[i].rate;\r\n        }\r\n        for (uint32 i = 0; i < dealer.cards.length; i++) {\r\n            dealer.sumDealer += dealer.cards[i].rate;\r\n        }\r\n    } //   \r\n\r\n    function checkWinner() public {\r\n        require(\r\n            (player.cashAmmount) == dealer.cashAmmount,\r\n            \"Rates must be the same.\"\r\n        );\r\n        require(standP == true && standD == true, \"Not all made 'stand\");\r\n        if ((player.sumPlayer > dealer.sumDealer) && (player.sumPlayer <= 21)) {\r\n            player.name.transfer(dealer.cashAmmount + player.cashAmmount);\r\n            winner = player.name;\r\n        } else if (player.sumPlayer == dealer.sumDealer) {\r\n            dealer.name.transfer(dealer.cashAmmount);\r\n            player.name.transfer(player.cashAmmount);\r\n        } else {\r\n            dealer.name.transfer(dealer.cashAmmount + player.cashAmmount);\r\n            winner = dealer.name;\r\n        }\r\n        emit Compare(\r\n            dealer.name,\r\n            dealer.sumDealer,\r\n            player.name,\r\n            player.sumPlayer\r\n        );\r\n    }\r\n\r\n    function check() public view returns (address) {\r\n        return winner;\r\n    }\r\n\r\n    function fillDeck() private {\r\n        ammountOfCards = Cards;\r\n        //  52 ,  \r\n        for (uint8 i = 0; i < 4; i++) {\r\n            //   2  10\r\n            for (uint8 j = 2; j <= 10; j++) {\r\n                deck.push(Card({name: uint2str(j), rate: j}));\r\n            }\r\n            deck.push(\r\n                Card({\r\n                    name: \"Jack\", //\r\n                    rate: 10\r\n                })\r\n            );\r\n            deck.push(\r\n                Card({\r\n                    name: \"Lady\", //\r\n                    rate: 10\r\n                })\r\n            );\r\n            deck.push(\r\n                Card({\r\n                    name: \"King\", //\r\n                    rate: 10\r\n                })\r\n            );\r\n            deck.push(\r\n                Card({\r\n                    name: \"Ace\", //\r\n                    rate: 11\r\n                })\r\n            );\r\n        }\r\n    }\r\n\r\n    constructor() public {\r\n        dealer.cashAmmount = 0;\r\n        player.cashAmmount = 0;\r\n        dealer.sumDealer = 0;\r\n        player.sumPlayer = 0;\r\n        fillDeck();\r\n    }\r\n\r\n    // \r\n    //\r\n    uint256 randNonce = 0;\r\n\r\n    function rand() internal returns (uint256) {\r\n        randNonce++;\r\n        return\r\n            uint256(keccak256(abi.encodePacked(msg.sender, randNonce))) %\r\n            ammountOfCards;\r\n    }\r\n\r\n    function uint2str(uint8 _i)\r\n        internal\r\n        pure\r\n        returns (string memory _uintAsString)\r\n    {\r\n        if (_i == 0) {\r\n            return \"0\";\r\n        }\r\n        uint256 j = _i;\r\n        uint256 len = 0;\r\n        while (j != 0) {\r\n            len++;\r\n            j /= 10;\r\n        }\r\n        bytes memory bstr = new bytes(len);\r\n        uint256 k = len;\r\n        while (true) {\r\n            k = k - 1;\r\n            uint8 temp = (48 + uint8(_i - (_i / 10) * 10));\r\n            bytes1 b1 = bytes1(temp);\r\n            bstr[k] = b1;\r\n            _i /= 10;\r\n            if (_i != 0) {\r\n                continue;\r\n            } else break;\r\n        }\r\n        return string(bstr);\r\n    }\r\n}\r\n",
  "sourcePath": "E:/blochain/Lab3/BlackJackContract/contracts/BlackJack.sol",
  "compiler": {
    "name": "solc",
    "version": "0.5.16+commit.9c3226ce.Emscripten.clang"
  },
  "schemaVersion": "3.3.4",
  "updatedAt": "2021-04-12T18:32:34.591Z",
  "networkType": "ethereum",
  "devdoc": {
    "methods": {}
  },
  "userdoc": {
    "methods": {}
  }
}