{
  "contractName": "BlackJack",
  "abi": [
    {
      "inputs": [],
      "payable": false,
      "stateMutability": "nonpayable",
      "type": "constructor"
    },
    {
      "constant": true,
      "inputs": [],
      "name": "ammountOfCards",
      "outputs": [
        {
          "internalType": "uint32",
          "name": "",
          "type": "uint32"
        }
      ],
      "payable": false,
      "stateMutability": "view",
      "type": "function"
    },
    {
      "constant": true,
      "inputs": [],
      "name": "dealer",
      "outputs": [
        {
          "internalType": "address",
          "name": "",
          "type": "address"
        }
      ],
      "payable": false,
      "stateMutability": "view",
      "type": "function"
    },
    {
      "constant": true,
      "inputs": [
        {
          "internalType": "uint256",
          "name": "",
          "type": "uint256"
        }
      ],
      "name": "dealerCards",
      "outputs": [
        {
          "internalType": "string",
          "name": "name",
          "type": "string"
        },
        {
          "internalType": "uint8",
          "name": "rate",
          "type": "uint8"
        }
      ],
      "payable": false,
      "stateMutability": "view",
      "type": "function"
    },
    {
      "constant": true,
      "inputs": [
        {
          "internalType": "uint256",
          "name": "",
          "type": "uint256"
        }
      ],
      "name": "deck",
      "outputs": [
        {
          "internalType": "string",
          "name": "name",
          "type": "string"
        },
        {
          "internalType": "uint8",
          "name": "rate",
          "type": "uint8"
        }
      ],
      "payable": false,
      "stateMutability": "view",
      "type": "function"
    },
    {
      "constant": true,
      "inputs": [],
      "name": "lastValue",
      "outputs": [
        {
          "internalType": "uint32",
          "name": "",
          "type": "uint32"
        }
      ],
      "payable": false,
      "stateMutability": "view",
      "type": "function"
    },
    {
      "constant": true,
      "inputs": [
        {
          "internalType": "address",
          "name": "",
          "type": "address"
        }
      ],
      "name": "players",
      "outputs": [
        {
          "internalType": "address",
          "name": "playerAddress",
          "type": "address"
        },
        {
          "internalType": "uint32",
          "name": "chipsAmmount",
          "type": "uint32"
        },
        {
          "internalType": "bool",
          "name": "hasCards",
          "type": "bool"
        },
        {
          "internalType": "bool",
          "name": "authorized",
          "type": "bool"
        },
        {
          "internalType": "uint32",
          "name": "sumPlayer",
          "type": "uint32"
        }
      ],
      "payable": false,
      "stateMutability": "view",
      "type": "function"
    },
    {
      "constant": true,
      "inputs": [],
      "name": "push",
      "outputs": [
        {
          "internalType": "bool",
          "name": "",
          "type": "bool"
        }
      ],
      "payable": false,
      "stateMutability": "view",
      "type": "function"
    },
    {
      "constant": true,
      "inputs": [],
      "name": "standD",
      "outputs": [
        {
          "internalType": "bool",
          "name": "",
          "type": "bool"
        }
      ],
      "payable": false,
      "stateMutability": "view",
      "type": "function"
    },
    {
      "constant": true,
      "inputs": [],
      "name": "standP",
      "outputs": [
        {
          "internalType": "bool",
          "name": "",
          "type": "bool"
        }
      ],
      "payable": false,
      "stateMutability": "view",
      "type": "function"
    },
    {
      "constant": true,
      "inputs": [],
      "name": "sumDealer",
      "outputs": [
        {
          "internalType": "uint256",
          "name": "",
          "type": "uint256"
        }
      ],
      "payable": false,
      "stateMutability": "view",
      "type": "function"
    },
    {
      "constant": true,
      "inputs": [],
      "name": "value",
      "outputs": [
        {
          "internalType": "uint256",
          "name": "",
          "type": "uint256"
        }
      ],
      "payable": false,
      "stateMutability": "view",
      "type": "function"
    },
    {
      "constant": true,
      "inputs": [],
      "name": "winner",
      "outputs": [
        {
          "internalType": "address",
          "name": "",
          "type": "address"
        }
      ],
      "payable": false,
      "stateMutability": "view",
      "type": "function"
    },
    {
      "constant": false,
      "inputs": [
        {
          "internalType": "address",
          "name": "player",
          "type": "address"
        },
        {
          "internalType": "uint32",
          "name": "chips",
          "type": "uint32"
        }
      ],
      "name": "authorize",
      "outputs": [],
      "payable": false,
      "stateMutability": "nonpayable",
      "type": "function"
    },
    {
      "constant": false,
      "inputs": [
        {
          "internalType": "address",
          "name": "player",
          "type": "address"
        }
      ],
      "name": "giveCards",
      "outputs": [],
      "payable": false,
      "stateMutability": "nonpayable",
      "type": "function"
    },
    {
      "constant": false,
      "inputs": [],
      "name": "hit",
      "outputs": [],
      "payable": false,
      "stateMutability": "nonpayable",
      "type": "function"
    },
    {
      "constant": false,
      "inputs": [],
      "name": "stand",
      "outputs": [],
      "payable": false,
      "stateMutability": "nonpayable",
      "type": "function"
    },
    {
      "constant": false,
      "inputs": [
        {
          "internalType": "address",
          "name": "player",
          "type": "address"
        }
      ],
      "name": "checkScore",
      "outputs": [
        {
          "internalType": "uint32",
          "name": "",
          "type": "uint32"
        }
      ],
      "payable": false,
      "stateMutability": "nonpayable",
      "type": "function"
    },
    {
      "constant": false,
      "inputs": [],
      "name": "checkWinner",
      "outputs": [],
      "payable": false,
      "stateMutability": "nonpayable",
      "type": "function"
    }
  ],
  "bytecode": "0x608060405260006009553480156200001657600080fd5b5033600360006101000a81548173ffffffffffffffffffffffffffffffffffffffff021916908373ffffffffffffffffffffffffffffffffffffffff1602179055506034600660006101000a81548163ffffffff021916908363ffffffff16021790555060008090505b60048160ff1610156200044d576000600290505b600a8160ff1611620001465760016040518060400160405280620000be846200045460201b60201c565b81526020018360ff1681525090806001815401808255809150509060018203906000526020600020906002020160009091929091909150600082015181600001908051906020019062000113929190620005a7565b5060208201518160010160006101000a81548160ff021916908360ff160217905550505050808060010191505062000094565b50600160405180604001604052806040518060400160405280600481526020017f4a61636b000000000000000000000000000000000000000000000000000000008152508152602001600a60ff16815250908060018154018082558091505090600182039060005260206000209060020201600090919290919091506000820151816000019080519060200190620001e0929190620005a7565b5060208201518160010160006101000a81548160ff021916908360ff160217905550505050600160405180604001604052806040518060400160405280600481526020017f4c616479000000000000000000000000000000000000000000000000000000008152508152602001600a60ff168152509080600181540180825580915050906001820390600052602060002090600202016000909192909190915060008201518160000190805190602001906200029e929190620005a7565b5060208201518160010160006101000a81548160ff021916908360ff160217905550505050600160405180604001604052806040518060400160405280600481526020017f4b696e67000000000000000000000000000000000000000000000000000000008152508152602001600a60ff168152509080600181540180825580915050906001820390600052602060002090600202016000909192909190915060008201518160000190805190602001906200035c929190620005a7565b5060208201518160010160006101000a81548160ff021916908360ff160217905550505050600160405180604001604052806040518060400160405280600381526020017f41636500000000000000000000000000000000000000000000000000000000008152508152602001600b60ff168152509080600181540180825580915050906001820390600052602060002090600202016000909192909190915060008201518160000190805190602001906200041a929190620005a7565b5060208201518160010160006101000a81548160ff021916908360ff160217905550505050808060010191505062000080565b5062000656565b606060008260ff161415620004a1576040518060400160405280600181526020017f30000000000000000000000000000000000000000000000000000000000000008152509050620005a2565b60008260ff16905060005b60008214620004d1578080600101915050600a8281620004c857fe5b049150620004ac565b6060816040519080825280601f01601f191660200182016040528015620005075781602001600182028038833980820191505090505b50905060008290505b60008660ff16146200059a576001810390506000600a808860ff16816200053357fe5b04028703603001905060008160f81b9050808484815181106200055257fe5b60200101907effffffffffffffffffffffffffffffffffffffffffffffffffffffffffffff1916908160001a905350600a8860ff16816200058f57fe5b049750505062000510565b819450505050505b919050565b828054600181600116156101000203166002900490600052602060002090601f016020900481019282601f10620005ea57805160ff19168380011785556200061b565b828001600101855582156200061b579182015b828111156200061a578251825591602001919060010190620005fd565b5b5090506200062a91906200062e565b5090565b6200065391905b808211156200064f57600081600090555060010162000635565b5090565b90565b611e1480620006666000396000f3fe608060405234801561001057600080fd5b50600436106101165760003560e01c80638035f0ce116100a2578063c2897b1011610071578063c2897b1014610465578063d55634221461046f578063dfbf53ae14610499578063e2eb41ff146104e3578063f7f10b2c146105a357610116565b80638035f0ce146103d15780639de2ee21146103f3578063ad38867e1461043d578063c1abe3271461044757610116565b80633f7063a2116100e95780633f7063a2146102915780633fa4f245146102b357806343183834146102d157806365b1dafa146102fb5780637310c2ef146103af57610116565b80630844eb3c1461011b5780632ae3594a1461016f5780633071614d146101795780633b552a381461022d575b600080fd5b61016d6004803603604081101561013157600080fd5b81019080803573ffffffffffffffffffffffffffffffffffffffff169060200190929190803563ffffffff1690602001909291905050506105e7565b005b6101776108a8565b005b6101a56004803603602081101561018f57600080fd5b8101908080359060200190929190505050610c56565b60405180806020018360ff1660ff168152602001828103825284818151815260200191508051906020019080838360005b838110156101f15780820151818401526020810190506101d6565b50505050905090810190601f16801561021e5780820380516001836020036101000a031916815260200191505b50935050505060405180910390f35b61026f6004803603602081101561024357600080fd5b81019080803573ffffffffffffffffffffffffffffffffffffffff169060200190929190505050610d2c565b604051808263ffffffff1663ffffffff16815260200191505060405180910390f35b610299610e7b565b604051808215151515815260200191505060405180910390f35b6102bb610e8e565b6040518082815260200191505060405180910390f35b6102d9610e94565b604051808263ffffffff1663ffffffff16815260200191505060405180910390f35b6103276004803603602081101561031157600080fd5b8101908080359060200190929190505050610ea9565b60405180806020018360ff1660ff168152602001828103825284818151815260200191508051906020019080838360005b83811015610373578082015181840152602081019050610358565b50505050905090810190601f1680156103a05780820380516001836020036101000a031916815260200191505b50935050505060405180910390f35b6103b7610f7f565b604051808215151515815260200191505060405180910390f35b6103d9610f92565b604051808215151515815260200191505060405180910390f35b6103fb610fa5565b604051808273ffffffffffffffffffffffffffffffffffffffff1673ffffffffffffffffffffffffffffffffffffffff16815260200191505060405180910390f35b610445610fcb565b005b61044f6112ab565b6040518082815260200191505060405180910390f35b61046d6112b1565b005b610477611345565b604051808263ffffffff1663ffffffff16815260200191505060405180910390f35b6104a161135b565b604051808273ffffffffffffffffffffffffffffffffffffffff1673ffffffffffffffffffffffffffffffffffffffff16815260200191505060405180910390f35b610525600480360360208110156104f957600080fd5b81019080803573ffffffffffffffffffffffffffffffffffffffff169060200190929190505050611381565b604051808673ffffffffffffffffffffffffffffffffffffffff1673ffffffffffffffffffffffffffffffffffffffff1681526020018563ffffffff1663ffffffff16815260200184151515158152602001831515151581526020018263ffffffff1663ffffffff1681526020019550505050505060405180910390f35b6105e5600480360360208110156105b957600080fd5b81019080803573ffffffffffffffffffffffffffffffffffffffff169060200190929190505050611411565b005b600360009054906101000a900473ffffffffffffffffffffffffffffffffffffffff1673ffffffffffffffffffffffffffffffffffffffff163373ffffffffffffffffffffffffffffffffffffffff16146106aa576040517f08c379a00000000000000000000000000000000000000000000000000000000081526004018080602001828103825260188152602001807f4f6e6c79206465616c65722063616e20646f20746869732e000000000000000081525060200191505060405180910390fd5b81600860008473ffffffffffffffffffffffffffffffffffffffff1673ffffffffffffffffffffffffffffffffffffffff16815260200190815260200160002060000160006101000a81548173ffffffffffffffffffffffffffffffffffffffff021916908373ffffffffffffffffffffffffffffffffffffffff1602179055506001600860008473ffffffffffffffffffffffffffffffffffffffff1673ffffffffffffffffffffffffffffffffffffffff16815260200190815260200160002060000160196101000a81548160ff0219169083151502179055506000600860008473ffffffffffffffffffffffffffffffffffffffff1673ffffffffffffffffffffffffffffffffffffffff16815260200190815260200160002060000160186101000a81548160ff0219169083151502179055506000600860008473ffffffffffffffffffffffffffffffffffffffff1673ffffffffffffffffffffffffffffffffffffffff168152602001908152602001600020600001601a6101000a81548163ffffffff021916908363ffffffff16021790555080600860008473ffffffffffffffffffffffffffffffffffffffff1673ffffffffffffffffffffffffffffffffffffffff16815260200190815260200160002060000160146101000a81548163ffffffff021916908363ffffffff1602179055505050565b600360009054906101000a900473ffffffffffffffffffffffffffffffffffffffff1673ffffffffffffffffffffffffffffffffffffffff163373ffffffffffffffffffffffffffffffffffffffff161415610b8b57601160075410610959576040517f08c379a000000000000000000000000000000000000000000000000000000000815260040180806020018281038252602e815260200180611d84602e913960400191505060405180910390fd5b6000610963611928565b905060026001828154811061097457fe5b906000526020600020906002020190806001815401808255809150509060018203906000526020600020906002020160009091929091909150600082018160000190805460018160011615610100020316600290046109d4929190611c8f565b506001820160009054906101000a900460ff168160010160006101000a81548160ff021916908360ff16021790555050505060018181548110610a1357fe5b906000526020600020906002020160010160009054906101000a900460ff1660ff16600760008282540192505081905550600180600660009054906101000a900463ffffffff160363ffffffff1681548110610a6b57fe5b906000526020600020906002020160018281548110610a8657fe5b906000526020600020906002020160008201816000019080546001816001161561010002031660029004610abb929190611c8f565b506001820160009054906101000a900460ff168160010160006101000a81548160ff021916908360ff160217905550905050600180600660009054906101000a900463ffffffff160363ffffffff1681548110610b1457fe5b906000526020600020906002020160008082016000610b339190611d16565b6001820160006101000a81549060ff021916905550506006600081819054906101000a900463ffffffff16809291906001900391906101000a81548163ffffffff021916908363ffffffff1602179055505050610c54565b6016600860003373ffffffffffffffffffffffffffffffffffffffff1673ffffffffffffffffffffffffffffffffffffffff168152602001908152602001600020600001601a9054906101000a900463ffffffff1663ffffffff1610610c3c576040517f08c379a000000000000000000000000000000000000000000000000000000000815260040180806020018281038252602e815260200180611db2602e913960400191505060405180910390fd5b6000610c46611928565b9050610c5233826119c5565b505b565b60028181548110610c6357fe5b9060005260206000209060020201600091509050806000018054600181600116156101000203166002900480601f016020809104026020016040519081016040528092919081815260200182805460018160011615610100020316600290048015610d0f5780601f10610ce457610100808354040283529160200191610d0f565b820191906000526020600020905b815481529060010190602001808311610cf257829003601f168201915b5050505050908060010160009054906101000a900460ff16905082565b6000600860008373ffffffffffffffffffffffffffffffffffffffff1673ffffffffffffffffffffffffffffffffffffffff16815260200190815260200160002060000160189054906101000a900460ff16610df0576040517f08c379a00000000000000000000000000000000000000000000000000000000081526004018080602001828103825260198152602001807f506c6179657220646f65736e277420686176652063617264730000000000000081525060200191505060405180910390fd5b600860008373ffffffffffffffffffffffffffffffffffffffff1673ffffffffffffffffffffffffffffffffffffffff168152602001908152602001600020600001601a9054906101000a900463ffffffff166000806101000a81548163ffffffff021916908363ffffffff1602179055506000809054906101000a900463ffffffff169050919050565b600360159054906101000a900460ff1681565b60055481565b6000809054906101000a900463ffffffff1681565b60018181548110610eb657fe5b9060005260206000209060020201600091509050806000018054600181600116156101000203166002900480601f016020809104026020016040519081016040528092919081815260200182805460018160011615610100020316600290048015610f625780601f10610f3757610100808354040283529160200191610f62565b820191906000526020600020905b815481529060010190602001808311610f4557829003601f168201915b5050505050908060010160009054906101000a900460ff16905082565b600360149054906101000a900460ff1681565b600360169054906101000a900460ff1681565b600360009054906101000a900473ffffffffffffffffffffffffffffffffffffffff1681565b60011515600360149054906101000a900460ff161515148015611001575060011515600360159054906101000a900460ff161515145b611073576040517f08c379a00000000000000000000000000000000000000000000000000000000081526004018080602001828103825260138152602001807f4e6f7420616c6c206d61646520277374616e640000000000000000000000000081525060200191505060405180910390fd5b600754600860003373ffffffffffffffffffffffffffffffffffffffff1673ffffffffffffffffffffffffffffffffffffffff168152602001908152602001600020600001601a9054906101000a900463ffffffff1663ffffffff1611801561113557506015600860003373ffffffffffffffffffffffffffffffffffffffff1673ffffffffffffffffffffffffffffffffffffffff168152602001908152602001600020600001601a9054906101000a900463ffffffff1663ffffffff1611155b156111805733600460006101000a81548173ffffffffffffffffffffffffffffffffffffffff021916908373ffffffffffffffffffffffffffffffffffffffff1602179055506112a9565b600754600860003373ffffffffffffffffffffffffffffffffffffffff1673ffffffffffffffffffffffffffffffffffffffff168152602001908152602001600020600001601a9054906101000a900463ffffffff1663ffffffff161415611244576001600360166101000a81548160ff0219169083151502179055506000600460006101000a81548173ffffffffffffffffffffffffffffffffffffffff021916908373ffffffffffffffffffffffffffffffffffffffff1602179055506112a8565b600360009054906101000a900473ffffffffffffffffffffffffffffffffffffffff16600460006101000a81548173ffffffffffffffffffffffffffffffffffffffff021916908373ffffffffffffffffffffffffffffffffffffffff1602179055505b5b565b60075481565b600360009054906101000a900473ffffffffffffffffffffffffffffffffffffffff1673ffffffffffffffffffffffffffffffffffffffff163373ffffffffffffffffffffffffffffffffffffffff161415611327576001600360156101000a81548160ff021916908315150217905550611343565b6001600360146101000a81548160ff0219169083151502179055505b565b600660009054906101000a900463ffffffff1681565b600460009054906101000a900473ffffffffffffffffffffffffffffffffffffffff1681565b60086020528060005260406000206000915090508060000160009054906101000a900473ffffffffffffffffffffffffffffffffffffffff16908060000160149054906101000a900463ffffffff16908060000160189054906101000a900460ff16908060000160199054906101000a900460ff169080600001601a9054906101000a900463ffffffff16905085565b600360009054906101000a900473ffffffffffffffffffffffffffffffffffffffff1673ffffffffffffffffffffffffffffffffffffffff163373ffffffffffffffffffffffffffffffffffffffff16146114d4576040517f08c379a00000000000000000000000000000000000000000000000000000000081526004018080602001828103825260188152602001807f4f6e6c79206465616c65722063616e20646f20746869732e000000000000000081525060200191505060405180910390fd5b600860008273ffffffffffffffffffffffffffffffffffffffff1673ffffffffffffffffffffffffffffffffffffffff16815260200190815260200160002060000160189054906101000a900460ff1615611597576040517f08c379a000000000000000000000000000000000000000000000000000000000815260040180806020018281038252601d8152602001807f54686520706c6179657220616c7265616479206861732063617264732e00000081525060200191505060405180910390fd5b60006001805490501415611613576040517f08c379a000000000000000000000000000000000000000000000000000000000815260040180806020018281038252601a8152602001807f4e6f206d6f726520636172647320696e20746865206465636b2100000000000081525060200191505060405180910390fd5b600360009054906101000a900473ffffffffffffffffffffffffffffffffffffffff1673ffffffffffffffffffffffffffffffffffffffff168173ffffffffffffffffffffffffffffffffffffffff16141561189b576000611673611928565b905060026001828154811061168457fe5b906000526020600020906002020190806001815401808255809150509060018203906000526020600020906002020160009091929091909150600082018160000190805460018160011615610100020316600290046116e4929190611c8f565b506001820160009054906101000a900460ff168160010160006101000a81548160ff021916908360ff1602179055505050506001818154811061172357fe5b906000526020600020906002020160010160009054906101000a900460ff1660ff16600760008282540192505081905550600180600660009054906101000a900463ffffffff160363ffffffff168154811061177b57fe5b90600052602060002090600202016001828154811061179657fe5b9060005260206000209060020201600082018160000190805460018160011615610100020316600290046117cb929190611c8f565b506001820160009054906101000a900460ff168160010160006101000a81548160ff021916908360ff160217905550905050600180600660009054906101000a900463ffffffff160363ffffffff168154811061182457fe5b9060005260206000209060020201600080820160006118439190611d16565b6001820160006101000a81549060ff021916905550506006600081819054906101000a900463ffffffff16809291906001900391906101000a81548163ffffffff021916908363ffffffff16021790555050506118ca565b60006118a5611928565b905060006118b1611928565b90506118bd83836119c5565b6118c783826119c5565b50505b6001600860008373ffffffffffffffffffffffffffffffffffffffff1673ffffffffffffffffffffffffffffffffffffffff16815260200190815260200160002060000160186101000a81548160ff02191690831515021790555050565b6000600960008154809291906001019190505550600660009054906101000a900463ffffffff1663ffffffff1633600954604051602001808373ffffffffffffffffffffffffffffffffffffffff1673ffffffffffffffffffffffffffffffffffffffff1660601b8152601401828152602001925050506040516020818303038152906040528051906020012060001c816119bf57fe5b06905090565b600860008373ffffffffffffffffffffffffffffffffffffffff1673ffffffffffffffffffffffffffffffffffffffff16815260200190815260200160002060010160018281548110611a1457fe5b90600052602060002090600202019080600181540180825580915050906001820390600052602060002090600202016000909192909190915060008201816000019080546001816001161561010002031660029004611a74929190611c8f565b506001820160009054906101000a900460ff168160010160006101000a81548160ff021916908360ff16021790555050505060018181548110611ab357fe5b906000526020600020906002020160010160009054906101000a900460ff1660ff16600860008473ffffffffffffffffffffffffffffffffffffffff1673ffffffffffffffffffffffffffffffffffffffff168152602001908152602001600020600001601a8282829054906101000a900463ffffffff160192506101000a81548163ffffffff021916908363ffffffff160217905550600180600660009054906101000a900463ffffffff160363ffffffff1681548110611b7157fe5b906000526020600020906002020160018281548110611b8c57fe5b906000526020600020906002020160008201816000019080546001816001161561010002031660029004611bc1929190611c8f565b506001820160009054906101000a900460ff168160010160006101000a81548160ff021916908360ff160217905550905050600180600660009054906101000a900463ffffffff160363ffffffff1681548110611c1a57fe5b906000526020600020906002020160008082016000611c399190611d16565b6001820160006101000a81549060ff021916905550506006600081819054906101000a900463ffffffff16809291906001900391906101000a81548163ffffffff021916908363ffffffff160217905550505050565b828054600181600116156101000203166002900490600052602060002090601f016020900481019282601f10611cc85780548555611d05565b82800160010185558215611d0557600052602060002091601f016020900482015b82811115611d04578254825591600101919060010190611ce9565b5b509050611d129190611d5e565b5090565b50805460018160011615610100020316600290046000825580601f10611d3c5750611d5b565b601f016020900490600052602060002090810190611d5a9190611d5e565b5b50565b611d8091905b80821115611d7c576000816000905550600101611d64565b5090565b9056fe4465616c65722063616e27742068697420696620686520686173206d6f7265207468616e20313620706f696e7473506c617965722063616e27742068697420696620686520686173206d6f7265207468616e20323120706f696e7473a265627a7a72315820eb4de45bdd279cda55a37b066da3a6da7b274f05305b9b526752b08a129e346364736f6c63430005100032",
  "source": "// SPDX-License-Identifier: MIT\npragma solidity >=0.4.22 <0.9.0;\n\ncontract BlackJack {\n    struct Player {\n        address playerAddress; // \n        uint32 chipsAmmount; // \n        bool hasCards;\n        bool authorized;\n        uint32 sumPlayer;\n        Card[] cards;\n    }\n    struct Card {\n        string name; // \n        uint8 rate; //  \n    }\n    uint32 public lastValue;\n    Card[] public deck; // \n    Card[] public dealerCards; // \n    address public dealer; // \n    bool public standP; //    \n    bool public standD; //    \n    bool public push;\n    address public winner;\n\n    uint256 public value;\n\n    uint32 public ammountOfCards;\n    uint256 public sumDealer; //  \n    mapping(address => Player) public players; //    \n\n    // function init() public payable {\n    //     dealer = payable(msg.sender);\n    //     value = msg.value;\n    // }\n\n    function authorize(address player, uint32 chips) public dealerOnly {\n        //\n        players[player].playerAddress = player;\n        players[player].authorized = true;\n        players[player].hasCards = false;\n        players[player].sumPlayer = 0;\n        players[player].chipsAmmount = chips;\n    }\n\n    function proccessCard(address player, uint256 card) private {\n        players[player].cards.push(deck[card]);\n        players[player].sumPlayer += deck[card].rate;\n        deck[card] = deck[ammountOfCards - 1];\n        delete deck[ammountOfCards - 1];\n        ammountOfCards--;\n    }\n\n    function giveCards(address player) public dealerOnly {\n        // \n        require(!players[player].hasCards, \"The player already has cards.\");\n        require(deck.length != 0, \"No more cards in the deck!\");\n        //   \n        if (player == dealer) {\n            //     \n            uint256 card = rand();\n            dealerCards.push(deck[card]);\n            sumDealer += deck[card].rate;\n\n            deck[card] = deck[ammountOfCards - 1];\n            delete deck[ammountOfCards - 1];\n            ammountOfCards--;\n        } else {\n            //     \n            uint256 card1 = rand();\n            uint256 card2 = rand();\n            proccessCard(player, card1);\n            proccessCard(player, card2);\n        }\n\n        players[player].hasCards = true;\n    }\n\n    function hit() public {\n        //   \n        if (msg.sender == dealer) {\n            require(\n                sumDealer < 17,\n                \"Dealer can't hit if he has more than 16 points\"\n            );\n            uint256 cardDealer = rand();\n            dealerCards.push(deck[cardDealer]);\n            sumDealer += deck[cardDealer].rate;\n            deck[cardDealer] = deck[ammountOfCards - 1];\n            delete deck[ammountOfCards - 1];\n            ammountOfCards--;\n        } else {\n            require(\n                players[msg.sender].sumPlayer < 22,\n                \"Player can't hit if he has more than 21 points\"\n            );\n            uint256 cardPlayer = rand();\n            proccessCard(msg.sender, cardPlayer);\n        }\n    }\n\n    function stand() public {\n        //   \n\n        if (msg.sender == dealer) {\n            standD = true;\n        } else {\n            standP = true;\n        }\n    }\n\n    function checkScore(address player) public returns (uint32) {\n        require(\n            players[player].hasCards,\n            \"Player doesn't have cards\" //    \n        );\n        // for (uint8 i = 0; i < players[player].cards.length; i++) {\n        //     lastValue += players[player].cards[i].rate;\n        // }\n        lastValue = players[player].sumPlayer;\n        return lastValue;\n    }\n\n    function checkWinner() public {\n        require(standP == true && standD == true, \"Not all made 'stand\");\n        if (\n            (players[msg.sender].sumPlayer > sumDealer) &&\n            (players[msg.sender].sumPlayer <= 21)\n        ) {\n            winner = msg.sender;\n        } else if (players[msg.sender].sumPlayer == sumDealer) {\n            push = true;\n            winner = address(0);\n        } else {\n            winner = dealer;\n        }\n    }\n\n    constructor() public {\n        dealer = msg.sender;\n        ammountOfCards = 52;\n        //  52 ,  \n        for (uint8 i = 0; i < 4; i++) {\n            //   2  10\n            for (uint8 j = 2; j <= 10; j++) {\n                deck.push(Card({name: uint2str(j), rate: j}));\n            }\n            deck.push(\n                Card({\n                    name: \"Jack\", //\n                    rate: 10\n                })\n            );\n            deck.push(\n                Card({\n                    name: \"Lady\", //\n                    rate: 10\n                })\n            );\n            deck.push(\n                Card({\n                    name: \"King\", //\n                    rate: 10\n                })\n            );\n            deck.push(\n                Card({\n                    name: \"Ace\", //\n                    rate: 11\n                })\n            );\n        }\n    }\n\n    // \n\n    modifier dealerOnly() {\n        require(msg.sender == dealer, \"Only dealer can do this.\");\n        _;\n    }\n\n    // Intializing the state variable\n    uint256 randNonce = 0;\n\n    // Defining a function to generate\n    // a random number\n    function rand() internal returns (uint256) {\n        // increase nonce\n        randNonce++;\n        return\n            uint256(keccak256(abi.encodePacked(msg.sender, randNonce))) %\n            ammountOfCards;\n    }\n\n    function uint2str(uint8 _i)\n        internal\n        pure\n        returns (string memory _uintAsString)\n    {\n        if (_i == 0) {\n            return \"0\";\n        }\n        uint256 j = _i;\n        uint256 len;\n        while (j != 0) {\n            len++;\n            j /= 10;\n        }\n        bytes memory bstr = new bytes(len);\n        uint256 k = len;\n        while (_i != 0) {\n            k = k - 1;\n            uint8 temp = (48 + uint8(_i - (_i / 10) * 10));\n            bytes1 b1 = bytes1(temp);\n            bstr[k] = b1;\n            _i /= 10;\n        }\n        return string(bstr);\n    }\n}\n",
  "sourcePath": "/Users/mikhail/Documents/BlackJackEth/contracts/BlackJack.sol",
  "compiler": {
    "name": "solc",
    "version": "0.5.16+commit.9c3226ce.Emscripten.clang"
  },
  "schemaVersion": "3.3.4",
  "updatedAt": "2021-03-30T17:10:41.017Z",
  "networkType": "ethereum",
  "devdoc": {
    "methods": {}
  },
  "userdoc": {
    "methods": {}
  }
}