{
  "contractName": "BlackJack",
  "abi": [
    {
      "inputs": [],
      "payable": false,
      "stateMutability": "nonpayable",
      "type": "constructor"
    },
    {
      "constant": true,
      "inputs": [],
      "name": "ammountOfCards",
      "outputs": [
        {
          "internalType": "uint32",
          "name": "",
          "type": "uint32"
        }
      ],
      "payable": false,
      "stateMutability": "view",
      "type": "function"
    },
    {
      "constant": true,
      "inputs": [],
      "name": "dealer",
      "outputs": [
        {
          "internalType": "address",
          "name": "",
          "type": "address"
        }
      ],
      "payable": false,
      "stateMutability": "view",
      "type": "function"
    },
    {
      "constant": true,
      "inputs": [
        {
          "internalType": "uint256",
          "name": "",
          "type": "uint256"
        }
      ],
      "name": "dealerCards",
      "outputs": [
        {
          "internalType": "string",
          "name": "name",
          "type": "string"
        },
        {
          "internalType": "uint8",
          "name": "rate",
          "type": "uint8"
        }
      ],
      "payable": false,
      "stateMutability": "view",
      "type": "function"
    },
    {
      "constant": true,
      "inputs": [
        {
          "internalType": "uint256",
          "name": "",
          "type": "uint256"
        }
      ],
      "name": "deck",
      "outputs": [
        {
          "internalType": "string",
          "name": "name",
          "type": "string"
        },
        {
          "internalType": "uint8",
          "name": "rate",
          "type": "uint8"
        }
      ],
      "payable": false,
      "stateMutability": "view",
      "type": "function"
    },
    {
      "constant": true,
      "inputs": [],
      "name": "lastValue",
      "outputs": [
        {
          "internalType": "uint32",
          "name": "",
          "type": "uint32"
        }
      ],
      "payable": false,
      "stateMutability": "view",
      "type": "function"
    },
    {
      "constant": true,
      "inputs": [
        {
          "internalType": "address",
          "name": "",
          "type": "address"
        }
      ],
      "name": "players",
      "outputs": [
        {
          "internalType": "address",
          "name": "playerAddress",
          "type": "address"
        },
        {
          "internalType": "uint32",
          "name": "chipsAmmount",
          "type": "uint32"
        },
        {
          "internalType": "address",
          "name": "delegate",
          "type": "address"
        },
        {
          "internalType": "bool",
          "name": "hasCards",
          "type": "bool"
        },
        {
          "internalType": "bool",
          "name": "authorized",
          "type": "bool"
        },
        {
          "internalType": "uint32",
          "name": "sumPlayer",
          "type": "uint32"
        }
      ],
      "payable": false,
      "stateMutability": "view",
      "type": "function"
    },
    {
      "constant": false,
      "inputs": [
        {
          "internalType": "address",
          "name": "player",
          "type": "address"
        },
        {
          "internalType": "uint32",
          "name": "chips",
          "type": "uint32"
        }
      ],
      "name": "authorize",
      "outputs": [],
      "payable": false,
      "stateMutability": "nonpayable",
      "type": "function"
    },
    {
      "constant": false,
      "inputs": [
        {
          "internalType": "address",
          "name": "player",
          "type": "address"
        }
      ],
      "name": "giveCards",
      "outputs": [],
      "payable": false,
      "stateMutability": "nonpayable",
      "type": "function"
    },
    {
      "constant": false,
      "inputs": [],
      "name": "hit",
      "outputs": [],
      "payable": false,
      "stateMutability": "nonpayable",
      "type": "function"
    },
    {
      "constant": false,
      "inputs": [],
      "name": "push",
      "outputs": [],
      "payable": false,
      "stateMutability": "nonpayable",
      "type": "function"
    },
    {
      "constant": false,
      "inputs": [
        {
          "internalType": "address",
          "name": "player",
          "type": "address"
        }
      ],
      "name": "checkScore",
      "outputs": [
        {
          "internalType": "uint32",
          "name": "",
          "type": "uint32"
        }
      ],
      "payable": false,
      "stateMutability": "nonpayable",
      "type": "function"
    }
  ],
  "bytecode": "0x608060405260006005553480156200001657600080fd5b5033600360006101000a81548173ffffffffffffffffffffffffffffffffffffffff021916908373ffffffffffffffffffffffffffffffffffffffff1602179055506034600360146101000a81548163ffffffff021916908363ffffffff16021790555060008090505b60048160ff1610156200044d576000600290505b600a8160ff1611620001465760016040518060400160405280620000be846200045460201b60201c565b81526020018360ff1681525090806001815401808255809150509060018203906000526020600020906002020160009091929091909150600082015181600001908051906020019062000113929190620005a7565b5060208201518160010160006101000a81548160ff021916908360ff160217905550505050808060010191505062000094565b50600160405180604001604052806040518060400160405280600481526020017f4a61636b000000000000000000000000000000000000000000000000000000008152508152602001600a60ff16815250908060018154018082558091505090600182039060005260206000209060020201600090919290919091506000820151816000019080519060200190620001e0929190620005a7565b5060208201518160010160006101000a81548160ff021916908360ff160217905550505050600160405180604001604052806040518060400160405280600481526020017f4c616479000000000000000000000000000000000000000000000000000000008152508152602001600a60ff168152509080600181540180825580915050906001820390600052602060002090600202016000909192909190915060008201518160000190805190602001906200029e929190620005a7565b5060208201518160010160006101000a81548160ff021916908360ff160217905550505050600160405180604001604052806040518060400160405280600481526020017f4b696e67000000000000000000000000000000000000000000000000000000008152508152602001600a60ff168152509080600181540180825580915050906001820390600052602060002090600202016000909192909190915060008201518160000190805190602001906200035c929190620005a7565b5060208201518160010160006101000a81548160ff021916908360ff160217905550505050600160405180604001604052806040518060400160405280600381526020017f41636500000000000000000000000000000000000000000000000000000000008152508152602001600b60ff168152509080600181540180825580915050906001820390600052602060002090600202016000909192909190915060008201518160000190805190602001906200041a929190620005a7565b5060208201518160010160006101000a81548160ff021916908360ff160217905550505050808060010191505062000080565b5062000656565b606060008260ff161415620004a1576040518060400160405280600181526020017f30000000000000000000000000000000000000000000000000000000000000008152509050620005a2565b60008260ff16905060005b60008214620004d1578080600101915050600a8281620004c857fe5b049150620004ac565b6060816040519080825280601f01601f191660200182016040528015620005075781602001600182028038833980820191505090505b50905060008290505b60008660ff16146200059a576001810390506000600a808860ff16816200053357fe5b04028703603001905060008160f81b9050808484815181106200055257fe5b60200101907effffffffffffffffffffffffffffffffffffffffffffffffffffffffffffff1916908160001a905350600a8860ff16816200058f57fe5b049750505062000510565b819450505050505b919050565b828054600181600116156101000203166002900490600052602060002090601f016020900481019282601f10620005ea57805160ff19168380011785556200061b565b828001600101855582156200061b579182015b828111156200061a578251825591602001919060010190620005fd565b5b5090506200062a91906200062e565b5090565b6200065391905b808211156200064f57600081600090555060010162000635565b5090565b90565b61171680620006666000396000f3fe608060405234801561001057600080fd5b50600436106100a95760003560e01c806365b1dafa1161007157806365b1dafa1461024e5780638035f0ce146103025780639de2ee211461030c578063d556342214610356578063e2eb41ff14610380578063f7f10b2c14610473576100a9565b80630844eb3c146100ae5780632ae3594a146101025780633071614d1461010c5780633b552a38146101c05780634318383414610224575b600080fd5b610100600480360360408110156100c457600080fd5b81019080803573ffffffffffffffffffffffffffffffffffffffff169060200190929190803563ffffffff1690602001909291905050506104b7565b005b61010a6107f9565b005b6101386004803603602081101561012257600080fd5b81019080803590602001909291905050506107fb565b60405180806020018360ff1660ff168152602001828103825284818151815260200191508051906020019080838360005b83811015610184578082015181840152602081019050610169565b50505050905090810190601f1680156101b15780820380516001836020036101000a031916815260200191505b50935050505060405180910390f35b610202600480360360208110156101d657600080fd5b81019080803573ffffffffffffffffffffffffffffffffffffffff1690602001909291905050506108d1565b604051808263ffffffff1663ffffffff16815260200191505060405180910390f35b61022c610b4b565b604051808263ffffffff1663ffffffff16815260200191505060405180910390f35b61027a6004803603602081101561026457600080fd5b8101908080359060200190929190505050610b60565b60405180806020018360ff1660ff168152602001828103825284818151815260200191508051906020019080838360005b838110156102c65780820151818401526020810190506102ab565b50505050905090810190601f1680156102f35780820380516001836020036101000a031916815260200191505b50935050505060405180910390f35b61030a610c36565b005b610314610c38565b604051808273ffffffffffffffffffffffffffffffffffffffff1673ffffffffffffffffffffffffffffffffffffffff16815260200191505060405180910390f35b61035e610c5e565b604051808263ffffffff1663ffffffff16815260200191505060405180910390f35b6103c26004803603602081101561039657600080fd5b81019080803573ffffffffffffffffffffffffffffffffffffffff169060200190929190505050610c74565b604051808773ffffffffffffffffffffffffffffffffffffffff1673ffffffffffffffffffffffffffffffffffffffff1681526020018663ffffffff1663ffffffff1681526020018573ffffffffffffffffffffffffffffffffffffffff1673ffffffffffffffffffffffffffffffffffffffff16815260200184151515158152602001831515151581526020018263ffffffff1663ffffffff168152602001965050505050505060405180910390f35b6104b56004803603602081101561048957600080fd5b81019080803573ffffffffffffffffffffffffffffffffffffffff169060200190929190505050610d2a565b005b600360009054906101000a900473ffffffffffffffffffffffffffffffffffffffff1673ffffffffffffffffffffffffffffffffffffffff163373ffffffffffffffffffffffffffffffffffffffff161461057a576040517f08c379a00000000000000000000000000000000000000000000000000000000081526004018080602001828103825260188152602001807f4f6e6c79206465616c65722063616e20646f20746869732e000000000000000081525060200191505060405180910390fd5b81600460008473ffffffffffffffffffffffffffffffffffffffff1673ffffffffffffffffffffffffffffffffffffffff16815260200190815260200160002060000160006101000a81548173ffffffffffffffffffffffffffffffffffffffff021916908373ffffffffffffffffffffffffffffffffffffffff1602179055506001600460008473ffffffffffffffffffffffffffffffffffffffff1673ffffffffffffffffffffffffffffffffffffffff16815260200190815260200160002060010160156101000a81548160ff0219169083151502179055506000600460008473ffffffffffffffffffffffffffffffffffffffff1673ffffffffffffffffffffffffffffffffffffffff16815260200190815260200160002060010160146101000a81548160ff0219169083151502179055506000600460008473ffffffffffffffffffffffffffffffffffffffff1673ffffffffffffffffffffffffffffffffffffffff16815260200190815260200160002060010160166101000a81548163ffffffff021916908363ffffffff16021790555033600460008473ffffffffffffffffffffffffffffffffffffffff1673ffffffffffffffffffffffffffffffffffffffff16815260200190815260200160002060010160006101000a81548173ffffffffffffffffffffffffffffffffffffffff021916908373ffffffffffffffffffffffffffffffffffffffff16021790555080600460008473ffffffffffffffffffffffffffffffffffffffff1673ffffffffffffffffffffffffffffffffffffffff16815260200190815260200160002060000160146101000a81548163ffffffff021916908363ffffffff1602179055505050565b565b6002818154811061080857fe5b9060005260206000209060020201600091509050806000018054600181600116156101000203166002900480601f0160208091040260200160405190810160405280929190818152602001828054600181600116156101000203166002900480156108b45780601f10610889576101008083540402835291602001916108b4565b820191906000526020600020905b81548152906001019060200180831161089757829003601f168201915b5050505050908060010160009054906101000a900460ff16905082565b6000600460008373ffffffffffffffffffffffffffffffffffffffff1673ffffffffffffffffffffffffffffffffffffffff16815260200190815260200160002060010160149054906101000a900460ff16610995576040517f08c379a00000000000000000000000000000000000000000000000000000000081526004018080602001828103825260198152602001807f506c6179657220646f65736e277420686176652063617264730000000000000081525060200191505060405180910390fd5b60008060006101000a81548163ffffffff021916908363ffffffff16021790555060008090505b600460008473ffffffffffffffffffffffffffffffffffffffff1673ffffffffffffffffffffffffffffffffffffffff168152602001908152602001600020600201805490508160ff161015610abf57600460008473ffffffffffffffffffffffffffffffffffffffff1673ffffffffffffffffffffffffffffffffffffffff1681526020019081526020016000206002018160ff1681548110610a5c57fe5b906000526020600020906002020160010160009054906101000a900460ff1660ff166000808282829054906101000a900463ffffffff160192506101000a81548163ffffffff021916908363ffffffff16021790555080806001019150506109bc565b506000809054906101000a900463ffffffff16600460008473ffffffffffffffffffffffffffffffffffffffff1673ffffffffffffffffffffffffffffffffffffffff16815260200190815260200160002060010160166101000a81548163ffffffff021916908363ffffffff1602179055506000809054906101000a900463ffffffff169050919050565b6000809054906101000a900463ffffffff1681565b60018181548110610b6d57fe5b9060005260206000209060020201600091509050806000018054600181600116156101000203166002900480601f016020809104026020016040519081016040528092919081815260200182805460018160011615610100020316600290048015610c195780601f10610bee57610100808354040283529160200191610c19565b820191906000526020600020905b815481529060010190602001808311610bfc57829003601f168201915b5050505050908060010160009054906101000a900460ff16905082565b565b600360009054906101000a900473ffffffffffffffffffffffffffffffffffffffff1681565b600360149054906101000a900463ffffffff1681565b60046020528060005260406000206000915090508060000160009054906101000a900473ffffffffffffffffffffffffffffffffffffffff16908060000160149054906101000a900463ffffffff16908060010160009054906101000a900473ffffffffffffffffffffffffffffffffffffffff16908060010160149054906101000a900460ff16908060010160159054906101000a900460ff16908060010160169054906101000a900463ffffffff16905086565b600360009054906101000a900473ffffffffffffffffffffffffffffffffffffffff1673ffffffffffffffffffffffffffffffffffffffff163373ffffffffffffffffffffffffffffffffffffffff1614610ded576040517f08c379a00000000000000000000000000000000000000000000000000000000081526004018080602001828103825260188152602001807f4f6e6c79206465616c65722063616e20646f20746869732e000000000000000081525060200191505060405180910390fd5b600460008273ffffffffffffffffffffffffffffffffffffffff1673ffffffffffffffffffffffffffffffffffffffff16815260200190815260200160002060010160149054906101000a900460ff1615610eb0576040517f08c379a000000000000000000000000000000000000000000000000000000000815260040180806020018281038252601d8152602001807f54686520706c6179657220616c7265616479206861732063617264732e00000081525060200191505060405180910390fd5b60006001805490501415610f2c576040517f08c379a000000000000000000000000000000000000000000000000000000000815260040180806020018281038252601a8152602001807f4e6f206d6f726520636172647320696e20746865206465636b2100000000000081525060200191505060405180910390fd5b600360009054906101000a900473ffffffffffffffffffffffffffffffffffffffff1673ffffffffffffffffffffffffffffffffffffffff168173ffffffffffffffffffffffffffffffffffffffff1614156111da576000610f8c611267565b9050600260018281548110610f9d57fe5b90600052602060002090600202019080600181540180825580915050906001820390600052602060002090600202016000909192909190915060008201816000019080546001816001161561010002031660029004610ffd9291906115ed565b506001820160009054906101000a900460ff168160010160006101000a81548160ff021916908360ff1602179055505050506001818154811061103c57fe5b906000526020600020906002020160010160009054906101000a900460ff1660ff16600360188282829054906101000a900463ffffffff160192506101000a81548163ffffffff021916908363ffffffff160217905550600180600360149054906101000a900463ffffffff160363ffffffff16815481106110ba57fe5b9060005260206000209060020201600182815481106110d557fe5b90600052602060002090600202016000820181600001908054600181600116156101000203166002900461110a9291906115ed565b506001820160009054906101000a900460ff168160010160006101000a81548160ff021916908360ff160217905550905050600180600360149054906101000a900463ffffffff160363ffffffff168154811061116357fe5b9060005260206000209060020201600080820160006111829190611674565b6001820160006101000a81549060ff021916905550506003601481819054906101000a900463ffffffff16809291906001900391906101000a81548163ffffffff021916908363ffffffff1602179055505050611209565b60006111e4611267565b905060006111f0611267565b90506111fc8383611304565b6112068382611304565b50505b6001600460008373ffffffffffffffffffffffffffffffffffffffff1673ffffffffffffffffffffffffffffffffffffffff16815260200190815260200160002060010160146101000a81548160ff02191690831515021790555050565b6000600560008154809291906001019190505550600360149054906101000a900463ffffffff1663ffffffff1633600554604051602001808373ffffffffffffffffffffffffffffffffffffffff1673ffffffffffffffffffffffffffffffffffffffff1660601b8152601401828152602001925050506040516020818303038152906040528051906020012060001c816112fe57fe5b06905090565b600360009054906101000a900473ffffffffffffffffffffffffffffffffffffffff1673ffffffffffffffffffffffffffffffffffffffff163373ffffffffffffffffffffffffffffffffffffffff16146113c7576040517f08c379a00000000000000000000000000000000000000000000000000000000081526004018080602001828103825260188152602001807f4f6e6c79206465616c65722063616e20646f20746869732e000000000000000081525060200191505060405180910390fd5b600460008373ffffffffffffffffffffffffffffffffffffffff1673ffffffffffffffffffffffffffffffffffffffff1681526020019081526020016000206002016001828154811061141657fe5b906000526020600020906002020190806001815401808255809150509060018203906000526020600020906002020160009091929091909150600082018160000190805460018160011615610100020316600290046114769291906115ed565b506001820160009054906101000a900460ff168160010160006101000a81548160ff021916908360ff160217905550505050600180600360149054906101000a900463ffffffff160363ffffffff16815481106114cf57fe5b9060005260206000209060020201600182815481106114ea57fe5b90600052602060002090600202016000820181600001908054600181600116156101000203166002900461151f9291906115ed565b506001820160009054906101000a900460ff168160010160006101000a81548160ff021916908360ff160217905550905050600180600360149054906101000a900463ffffffff160363ffffffff168154811061157857fe5b9060005260206000209060020201600080820160006115979190611674565b6001820160006101000a81549060ff021916905550506003601481819054906101000a900463ffffffff16809291906001900391906101000a81548163ffffffff021916908363ffffffff160217905550505050565b828054600181600116156101000203166002900490600052602060002090601f016020900481019282601f106116265780548555611663565b8280016001018555821561166357600052602060002091601f016020900482015b82811115611662578254825591600101919060010190611647565b5b50905061167091906116bc565b5090565b50805460018160011615610100020316600290046000825580601f1061169a57506116b9565b601f0160209004906000526020600020908101906116b891906116bc565b5b50565b6116de91905b808211156116da5760008160009055506001016116c2565b5090565b9056fea265627a7a72315820acb1d6c31ec5511f2dcf3f162c98796a9ffda396314a94783d03ed02a57ad54464736f6c63430005100032",
  "source": "// SPDX-License-Identifier: MIT\npragma solidity >=0.4.22 <0.9.0;\n\ncontract BlackJack {\n    struct Player {\n        address playerAddress; //имя игрока\n        uint32 chipsAmmount; //количество фишек\n        address delegate; // дилер, с которым он играет\n        bool hasCards;\n        bool authorized;\n        uint32 sumPlayer;\n        Card[] cards;\n    }\n    struct Card {\n        string name; //название карты\n        uint8 rate; //насколько карта сильна\n    }\n    uint32 public lastValue;\n    Card[] public deck; //колода карт\n    Card[] public dealerCards; //карты дилера\n    address public dealer; //адрес дилера\n    uint32 public ammountOfCards;\n    uint32 private dealerSum;\n    mapping(address => Player) public players; // все адреса являются игроками\n\n    function authorize(address player, uint32 chips) public dealerOnly {\n        //авторизуем\n        players[player].playerAddress = player;\n        players[player].authorized = true;\n        players[player].hasCards = false;\n        players[player].sumPlayer = 0;\n        players[player].delegate = msg.sender;\n        players[player].chipsAmmount = chips;\n    }\n\n    function proccessCard(address player, uint256 card) private dealerOnly {\n        players[player].cards.push(deck[card]);\n        deck[card] = deck[ammountOfCards - 1];\n        delete deck[ammountOfCards - 1];\n        ammountOfCards--;\n    }\n\n    function giveCards(address player) public dealerOnly {\n        //Раздать карты\n        require(!players[player].hasCards, \"The player already has cards.\");\n        require(deck.length != 0, \"No more cards in the deck!\");\n        //Здесь реализуем раздачу карт\n        if (player == dealer) {\n            //если дилер выдает сам себе карту\n            uint256 card = rand();\n            dealerCards.push(deck[card]);\n            dealerSum += deck[card].rate;\n\n            deck[card] = deck[ammountOfCards - 1];\n            delete deck[ammountOfCards - 1];\n            ammountOfCards--;\n        } else {\n            // если он выдает карту игроку\n            uint256 card1 = rand();\n            uint256 card2 = rand();\n            proccessCard(player, card1);\n            proccessCard(player, card2);\n        }\n\n        players[player].hasCards = true;\n    }\n\n    function hit() public {}\n\n    function push() public {}\n\n    function checkScore(address player) public returns (uint32) {\n        require(\n            players[player].hasCards,\n            \"Player doesn't have cards\" // у игрока нет карт\n        );\n        lastValue = 0;\n        for (uint8 i = 0; i < players[player].cards.length; i++) {\n            lastValue += players[player].cards[i].rate;\n        }\n        players[player].sumPlayer = lastValue;\n        return lastValue;\n    }\n\n    constructor() public {\n        dealer = msg.sender;\n        ammountOfCards = 52;\n        //в колоде 52 карты, заполняем их\n        for (uint8 i = 0; i < 4; i++) {\n            //заполняем карты от 2 до 10\n            for (uint8 j = 2; j <= 10; j++) {\n                deck.push(Card({name: uint2str(j), rate: j}));\n            }\n            deck.push(\n                Card({\n                    name: \"Jack\", //валет\n                    rate: 10\n                })\n            );\n            deck.push(\n                Card({\n                    name: \"Lady\", //дама\n                    rate: 10\n                })\n            );\n            deck.push(\n                Card({\n                    name: \"King\", //король\n                    rate: 10\n                })\n            );\n            deck.push(\n                Card({\n                    name: \"Ace\", //туз\n                    rate: 11\n                })\n            );\n        }\n    }\n\n    //Вспомогательные функции\n\n    modifier dealerOnly() {\n        require(msg.sender == dealer, \"Only dealer can do this.\");\n        _;\n    }\n\n    // Intializing the state variable\n    uint256 randNonce = 0;\n\n    // Defining a function to generate\n    // a random number\n    function rand() internal returns (uint256) {\n        // increase nonce\n        randNonce++;\n        return\n            uint256(keccak256(abi.encodePacked(msg.sender, randNonce))) %\n            ammountOfCards;\n    }\n\n    function uint2str(uint8 _i)\n        internal\n        pure\n        returns (string memory _uintAsString)\n    {\n        if (_i == 0) {\n            return \"0\";\n        }\n        uint256 j = _i;\n        uint256 len;\n        while (j != 0) {\n            len++;\n            j /= 10;\n        }\n        bytes memory bstr = new bytes(len);\n        uint256 k = len;\n        while (_i != 0) {\n            k = k - 1;\n            uint8 temp = (48 + uint8(_i - (_i / 10) * 10));\n            bytes1 b1 = bytes1(temp);\n            bstr[k] = b1;\n            _i /= 10;\n        }\n        return string(bstr);\n    }\n}\n",
  "sourcePath": "/Users/mikhail/Documents/BlackJackEth/contracts/BlackJack.sol",
  "compiler": {
    "name": "solc",
    "version": "0.5.16+commit.9c3226ce.Emscripten.clang"
  },
  "schemaVersion": "3.3.4",
  "updatedAt": "2021-03-30T09:40:14.787Z",
  "networkType": "ethereum",
  "devdoc": {
    "methods": {}
  },
  "userdoc": {
    "methods": {}
  }
}