{
  "contractName": "BlackJack",
  "abi": [
    {
      "anonymous": false,
      "inputs": [
        {
          "indexed": true,
          "internalType": "address",
          "name": "d",
          "type": "address"
        },
        {
          "indexed": false,
          "internalType": "uint256",
          "name": "sumd",
          "type": "uint256"
        },
        {
          "indexed": true,
          "internalType": "address",
          "name": "p",
          "type": "address"
        },
        {
          "indexed": false,
          "internalType": "uint256",
          "name": "sump",
          "type": "uint256"
        }
      ],
      "name": "Compare",
      "type": "event"
    },
    {
      "anonymous": false,
      "inputs": [
        {
          "indexed": true,
          "internalType": "address",
          "name": "_from",
          "type": "address"
        },
        {
          "indexed": false,
          "internalType": "uint256",
          "name": "_value",
          "type": "uint256"
        }
      ],
      "name": "Deposit",
      "type": "event"
    },
    {
      "anonymous": false,
      "inputs": [
        {
          "indexed": true,
          "internalType": "address",
          "name": "_from",
          "type": "address"
        },
        {
          "indexed": false,
          "internalType": "uint256",
          "name": "last_card",
          "type": "uint256"
        },
        {
          "indexed": false,
          "internalType": "uint256",
          "name": "sum",
          "type": "uint256"
        }
      ],
      "name": "Get_Cards",
      "type": "event"
    },
    {
      "constant": true,
      "inputs": [
        {
          "internalType": "uint256",
          "name": "",
          "type": "uint256"
        }
      ],
      "name": "deck",
      "outputs": [
        {
          "internalType": "bytes32",
          "name": "name",
          "type": "bytes32"
        },
        {
          "internalType": "uint256",
          "name": "rate",
          "type": "uint256"
        }
      ],
      "payable": false,
      "stateMutability": "view",
      "type": "function"
    },
    {
      "constant": true,
      "inputs": [],
      "name": "sum_d",
      "outputs": [
        {
          "internalType": "uint256",
          "name": "",
          "type": "uint256"
        }
      ],
      "payable": false,
      "stateMutability": "view",
      "type": "function"
    },
    {
      "constant": true,
      "inputs": [],
      "name": "sum_p",
      "outputs": [
        {
          "internalType": "uint256",
          "name": "",
          "type": "uint256"
        }
      ],
      "payable": false,
      "stateMutability": "view",
      "type": "function"
    },
    {
      "constant": false,
      "inputs": [],
      "name": "not_enough_cash",
      "outputs": [],
      "payable": false,
      "stateMutability": "nonpayable",
      "type": "function"
    },
    {
      "constant": false,
      "inputs": [],
      "name": "choose_dealer",
      "outputs": [],
      "payable": true,
      "stateMutability": "payable",
      "type": "function"
    },
    {
      "constant": false,
      "inputs": [],
      "name": "choose_player",
      "outputs": [],
      "payable": true,
      "stateMutability": "payable",
      "type": "function"
    },
    {
      "constant": false,
      "inputs": [],
      "name": "add_money_player",
      "outputs": [],
      "payable": true,
      "stateMutability": "payable",
      "type": "function"
    },
    {
      "constant": false,
      "inputs": [],
      "name": "add_money_dealer",
      "outputs": [],
      "payable": true,
      "stateMutability": "payable",
      "type": "function"
    },
    {
      "constant": false,
      "inputs": [],
      "name": "check_cards",
      "outputs": [],
      "payable": false,
      "stateMutability": "nonpayable",
      "type": "function"
    },
    {
      "constant": false,
      "inputs": [],
      "name": "result",
      "outputs": [],
      "payable": false,
      "stateMutability": "nonpayable",
      "type": "function"
    }
  ],
  "bytecode": "0x608060405260056009556005600a5534801561001a57600080fd5b5061087f8061002a6000396000f3fe6080604052600436106100915760003560e01c80638f801d86116100595780638f801d861461015c578063ab73821314610166578063b3f0482514610170578063f3103a141461017a578063f8ba0c68146101a557610091565b806303fee7381461009657806323dbcc0e146100c157806365372147146100d857806365b1dafa146100ef57806365c5d42514610145575b600080fd5b3480156100a257600080fd5b506100ab6101af565b6040518082815260200191505060405180910390f35b3480156100cd57600080fd5b506100d66101b5565b005b3480156100e457600080fd5b506100ed610298565b005b3480156100fb57600080fd5b506101286004803603602081101561011257600080fd5b81019080803590602001909291905050506104b5565b604051808381526020018281526020019250505060405180910390f35b34801561015157600080fd5b5061015a6104e6565b005b6101646105a2565b005b61016e61067c565b005b610178610757565b005b34801561018657600080fd5b5061018f6107f4565b6040518082815260200191505060405180910390f35b6101ad6107fa565b005b60095481565b6000800160009054906101000a900473ffffffffffffffffffffffffffffffffffffffff1673ffffffffffffffffffffffffffffffffffffffff166108fc6000600101549081150290604051600060405180830381858888f19350505050158015610224573d6000803e3d6000fd5b50600460000160009054906101000a900473ffffffffffffffffffffffffffffffffffffffff1673ffffffffffffffffffffffffffffffffffffffff166108fc6004600101549081150290604051600060405180830381858888f19350505050158015610295573d6000803e3d6000fd5b50565b6102a06104e6565b6015600a54111580156102b657506015600a5411155b156104b357600954600a54101561033f576000800160009054906101000a900473ffffffffffffffffffffffffffffffffffffffff1673ffffffffffffffffffffffffffffffffffffffff166108fc600060010154600460010154019081150290604051600060405180830381858888f1935050505015801561033d573d6000803e3d6000fd5b505b600954600a5411156103c457600460000160009054906101000a900473ffffffffffffffffffffffffffffffffffffffff1673ffffffffffffffffffffffffffffffffffffffff166108fc600060010154600460010154019081150290604051600060405180830381858888f193505050501580156103c2573d6000803e3d6000fd5b505b600954600a5414156104b257600460000160009054906101000a900473ffffffffffffffffffffffffffffffffffffffff1673ffffffffffffffffffffffffffffffffffffffff166108fc6004600101549081150290604051600060405180830381858888f19350505050158015610440573d6000803e3d6000fd5b506000800160009054906101000a900473ffffffffffffffffffffffffffffffffffffffff1673ffffffffffffffffffffffffffffffffffffffff166108fc6000600101549081150290604051600060405180830381858888f193505050501580156104b0573d6000803e3d6000fd5b505b5b565b600781815481106104c257fe5b90600052602060002090600202016000915090508060000154908060010154905082565b60008090505b6000600301805490508110156105425760006009819055506000600301818154811061051457fe5b90600052602060002090600202016001015460096000828254019250508190555080806001019150506104ec565b5060008090505b60046002018054905081101561059f576000600a819055506004600201818154811061057157fe5b906000526020600020906002020160010154600a600082825401925050819055508080600101915050610549565b50565b6000800160009054906101000a900473ffffffffffffffffffffffffffffffffffffffff1673ffffffffffffffffffffffffffffffffffffffff163373ffffffffffffffffffffffffffffffffffffffff1614610667576040517f08c379a000000000000000000000000000000000000000000000000000000000815260040180806020018281038252601a8152602001807f4f6e6c7920706c617965722063616e2063616c6c20746869732e00000000000081525060200191505060405180910390fd5b34600060010160008282540192505081905550565b600460000160009054906101000a900473ffffffffffffffffffffffffffffffffffffffff1673ffffffffffffffffffffffffffffffffffffffff163373ffffffffffffffffffffffffffffffffffffffff1614610742576040517f08c379a000000000000000000000000000000000000000000000000000000000815260040180806020018281038252601a8152602001807f4f6e6c79206465616c65722063616e2063616c6c20746869732e00000000000081525060200191505060405180910390fd5b34600460010160008282540192505081905550565b34600060010181905550336000800160006101000a81548173ffffffffffffffffffffffffffffffffffffffff021916908373ffffffffffffffffffffffffffffffffffffffff1602179055503373ffffffffffffffffffffffffffffffffffffffff167fe1fffcc4923d04b559f4d29a8bfc6cda04eb5b0d3c460751c2402c5c5cc9109c346040518082815260200191505060405180910390a2565b600a5481565b33600460000160006101000a81548173ffffffffffffffffffffffffffffffffffffffff021916908373ffffffffffffffffffffffffffffffffffffffff1602179055503460046001018190555056fea265627a7a72315820842caba73ff3b544332ce731a36f34c232f33d386cf04f92c10a6e9c96e0035264736f6c63430005100032",
  "source": "// SPDX-License-Identifier: MIT\npragma solidity >=0.4.22 <0.7.0;\n\ncontract BlackJack {\n    struct Player {\n        address payable name; //имя игрока\n        uint256 cashAmmount; //колличество денег\n        address delegate; // дилер, с которым он играет\n        bool hasCards;\n        Card[] cards;\n    }\n    struct Card {\n        bytes32 name; //название карты\n        uint256 rate; //насколько карта сильна\n    }\n    struct Dealer {\n        address payable name; //имя дилера\n        uint256 cashAmmount; //колличество денег\n        Card[] cards;\n    }\n    Player player;\n    Dealer  dealer;\n    Card[] public deck; //колода карт\n    event Deposit(address indexed  _from,  uint _value);\n    event Get_Cards(address indexed  _from,  uint last_card, uint sum);\n    event Compare(address indexed  d, uint sumd, address indexed  p,  uint sump);\n    enum State {Start, Bet, Stop , Result}\n    State state;\n    modifier inState(State _state) {\n        require(\n            state == _state,\n            \"Invalid state.\"\n        );\n        _;\n    }\n    modifier points_player() {\n        check_cards();\n        require(\n            sum_p<=21,\n            \"You've lost.Total points over 21\"\n        );\n        _;\n    }// проверка суммы баллов игрока \n\n    modifier points_dealer() {\n        check_cards();\n        require(\n            sum_p<=17,\n            \"Total points over 17\"\n        );\n        _;\n    }//? провера суммы баллов дилера\n\n    modifier only_dealer() {\n        require(\n            msg.sender == dealer.name,\n            \"Only dealer can call this.\"\n        );\n        _;\n    }\n    \n    modifier only_player() {\n        require(\n            msg.sender == player.name,\n            \"Only player can call this.\"\n        );\n        _;\n    }   \n    function not_enough_cash()      \n     public\n    {\n        player.name.transfer(player.cashAmmount);\n        dealer.name.transfer(dealer.cashAmmount);\n    }\n\n    function choose_dealer()         \n       public\n       payable\n       {\n          //state=State.Start;\n          dealer.name = msg.sender;\n          dealer.cashAmmount = msg.value;\n       }// получение адреса дилера\n\n    function choose_player()     \n      public \n      //inState(State.Start)\n      payable\n      {\n        player.cashAmmount = msg.value;\n        player.name = msg.sender;\n        emit Deposit(msg.sender,msg.value );\n       } // получение адреса игрока\n\n    function add_money_player()     \n      public \n      //points_player\n      only_player\n     //inState(State.Bet)\n      payable\n    {\n     player.cashAmmount += msg.value;  \n    } // увеличение ставки\n\n    function add_money_dealer()     \n      public \n      //points_dealer\n      only_dealer\n     //inState(State.Bet)\n      payable\n    {\n     dealer.cashAmmount += msg.value;  \n    } // увеличение ставки\n\n\n    uint256 public sum_p=5;\n    uint256 public sum_d=5;\n\n    function check_cards()\n    public\n    {\n        for(uint256 i=0; i<player.cards.length; i++){\n            sum_p=0;\n            sum_p+=player.cards[i].rate;\n        }\n        for(uint256 i=0; i<dealer.cards.length; i++){\n            sum_d=0;\n            sum_d+=dealer.cards[i].rate;\n        }\n    }// подсчет суммы баллов\n    \n    function result()\n    //inState(State.Result)\n   // only_dealer\n    public\n      {\n        check_cards();\n        if((sum_d<=21)&&(sum_d<=21)){\n            if(sum_d<sum_p){\n                 player.name.transfer(dealer.cashAmmount+player.cashAmmount);\n            }\n           if(sum_d>sum_p){\n\n                 dealer.name.transfer(dealer.cashAmmount+player.cashAmmount);\n            }\n            if(sum_d==sum_p){\n                   dealer.name.transfer(dealer.cashAmmount);\n                   player.name.transfer(player.cashAmmount);\n            }\n        } \n      } // оценивание баллов \n\n    // function giveCards(address player) public {\n    //     //Раздать карты\n    //     require(msg.sender == dealer.name, \"Only dealer can give cards.\");\n    //     require(!players[player].hasCards, \"The player already has cards.\");\n    //     //Здесь реализуем раздачу карт\n\n    //     uint card1 = random();\n    //     uint card2 = random();\n    //     while(card1 == card2){\n    //         card2 = random();\n    //     }\n\n    //     players[player].cards.push(deck[card1]);\n    //     players[player].cards.push(deck[card2]);\n\n    // }\n    \n\n    // function checkScore(Player memory player) public {\n    //     require(\n    //         player.hasCards,\n    //         \"Player doesn't have cards\" // у игрока нет карт\n    //     );\n    //     uint256 sumPlayer = 0;\n    //     for (uint256 i = 0; i < player.cards.length; i++) {\n    //         sumPlayer += player.cards[i].rate;\n    //     }\n    // }\n\n    // function random() private view returns (uint) {\n    // //uint randomHash = uint(keccak256(block.difficulty));\n    // //return randomHash % 12;\n    // }\n\n\n    // constructor(uint256 amountOfDecks) public {\n    //     require(\n    //         amountOfDecks < 9,\n    //         \"You can't create more than 8 decks\" // нельзя использовать больше 8 колод (по правилам)\n    //     );\n    //     //в колоде 52 карты, заполняем их\n    //     for (uint256 k = 0; k < amountOfDecks; k++) {\n    //         for (uint256 i = 0; i < 4; i++) {\n    //             //заполняем карты от 2 до 10\n    //             for (uint256 j = 2; j <= 10; j++) {\n    //                 deck.push(Card({name: bytes32(j), rate: j}));\n    //             }\n    //             deck.push(\n    //                 Card({\n    //                     name: \"Jack\", //валет\n    //                     rate: 10\n    //                 })\n    //             );\n    //             deck.push(\n    //                 Card({\n    //                     name: \"Lady\", //дама\n    //                     rate: 10\n    //                 })\n    //             );\n    //             deck.push(\n    //                 Card({\n    //                     name: \"King\", //король\n    //                     rate: 10\n    //                 })\n    //             );\n    //             deck.push(\n    //                 Card({\n    //                     name: \"Ace\", //туз\n    //                     rate: 11\n    //                 })\n    //             );\n    //         }\n    //     }\n    // }\n}\n",
  "sourcePath": "/Users/mikhail/Documents/BlackJackEth/contracts/BlackJackMasha.sol",
  "compiler": {
    "name": "solc",
    "version": "0.5.16+commit.9c3226ce.Emscripten.clang"
  },
  "schemaVersion": "3.3.4",
  "updatedAt": "2021-03-30T18:16:30.017Z",
  "networkType": "ethereum",
  "devdoc": {
    "methods": {}
  },
  "userdoc": {
    "methods": {}
  }
}